:0A0000000C9444000C9400000C94D2
:10000A0000000C9400000C9400000C9400000C9466
:10001A0000000C9400000C9400000C9400000C9456
:10002A0000000C9400000C9400000C9400000C9446
:10003A0000000C9400000C9400000C9400000C9436
:10004A0000000C9400000C9400003D0A3742253051
:10005A00322E326600002D4E414E000080C0010053
:10006A002D4E414E00494E460000040080025400C5
:10007A000200840266000100880268000000F89409
:10008A00EE27ECBBF1E0F5BFE5BF8DE0A2E0BB27B0
:10009A00ED938A95E9F780E098E0A0E6ED93019761
:1000AA00E9F7E4E7F0E085919591009761F0A59171
:1000BA00B59105901590BF01F00105900D92019739
:1000CA00E1F7FB01F0CFEFE5EDBFE8E0EEBFC0E6F8
:1000DA00D2E00C947000A0E10E944E04E0E6F2E047
:1000EA00FA93EA93E8E5F0E0FA93EA93E091800262
:1000FA00F091810260918202709183020E94C40889
:10010A0084E00E94BB032896A0E6B2E00E943D0468
:10011A00A8EEB3E00E948D060E941C04DFCFFFCF39
:10012A00BA93AA931A930A93AA81BB8112960E9440
:10013A00AB08309729F1AA81BB8114960E94AB08BB
:10014A008F01309761F00230E0E01E0780F0F8017D
:10015A0031978F01AA81BB811496ED93FC93AA81F2
:10016A00BB8112960E948B053197AC81A083AA812C
:10017A00BB810E94AB08FF2312F00E948B0506C0C8
:10018A00AA81BB81EFEFFFEFED93FC931981088100
:10019A00259608950E949105E0E8EA83EFE3EB8350
:1001AA000E94E108EE85FF85EF3FAFEFFA0749F4B9
:1001BA00E885F985FA93EA93A0E6B0E00E947C0408
:1001CA00B7C0EF3FAFE7FA0749F4E885F985FA9334
:1001DA00EA93A1E6B0E00E947C04AAC0AB85A730EE
:1001EA0010F0E6E0EB871B85E12F1150E03019F0A3
:1001FA000E949805F9CFEC85FD856E857F850E9462
:10020A00DB0821F430E00E9498052DC03B850E944E
:10021A00A70509F008F40BC00E9498050E94A705DB
:10022A0028F00E94B2050E94B705F8CF0DC00E94BF
:10023A00A70540F40E94B2050E94C3050E94CA05A0
:10024A003150F5CF0E949805EC85FD856E857F8536
:10025A000E94CF050E94CA050E94A70520F00E94AD
:10026A00B2050E94B70510E0EB85E117A8F1AC8151
:10027A00BD818E819F810E94D6050E94CF05DF0134
:10028A00CB010E94D304EC83FD836E837F830E949B
:10029A00B2050E94DB070E94CA060E2F0E94DD05E6
:1002AA000E94E405FF27662777270E940307AC818F
:1002BA00BD818E819F810E948D070E94B2050E9496
:1002CA00E9050E94CA05E12F1F5FE03069F60E9426
:1002DA00DD05EEE2EC93C8CF0E94EE053197AA85C0
:1002EA00A08330302CF43195A885B985EDE203C09E
:1002FA00A885B985EBE2EC930E94EE050E94EE0513
:10030A003197BF01A32FEAE00E946508E05DDB0197
:10031A00EC930E94EE053197BF01A32FEAE00E94F9
:10032A008F08E05DDB01EC93A885B985E0E0EC93EA
:10033A000E94E80860960895BA93AA93EF97619786
:10034A000E94DF0810E0FE01E85AFF4F0190F08199
:10035A00E02DE887F987FE01EA5AFF4F0190F08104
:10036A00E02DEE83FF83AE81BF81E0E0F0E0ED9304
:10037A00FC93DE01A45ABF4F0E948B053197E4918A
:10038A002E2FE03009F4E9C1E12FE03039F42532AB
:10039A0011F411E002C00E94F405DEC1E130C1F49B
:1003AA00253219F40E94F405D6C112E0E0E0ED8B83
:1003BA0000E02D3211F401E0CFC12B3219F4EBE247
:1003CA00ED8BCAC1203219F4E0E2ED8BC5C102C03F
:1003DA00E23039F450E013E0203311F40068BCC174
:1003EA0002C0E33091F4203310F02A3308F007C03A
:1003FA00AAE05A9F502DE22FE0535E0FADC140E0B4
:10040A002E3211F414E0A8C10FC0E43099F420335D
:10041A0010F02A3308F008C00062AAE04A9F402D73
:10042A00E22FE0534E0F98C12C3619F4026015E002
:10043A0093C103C0E53009F08FC1E22FE33659F4C6
:10044A000E94FB050E9402060E94FB05A481AA9352
:10045A000E94090680C1E53411F0E53609F403C0AB
:10046A00E63609F048C0FE017696EE87FF870E94BD
:10047A000F060E94AF080E9416060E941B06AD8551
:10048A00AA2332F0AD89AB3259F0A03281F017C0FD
:10049A000E941D060E9497060E941606EDE2ED8B49
:1004AA0007FF05C0ED89EA930E94090608C0EE8598
:1004BA00FF853196EE87FF873197AD89A08305FFC7
:1004CA0046E0263651F40E941D060E94C4084A934B
:1004DA00AB89BC890E94EA0409C00E941D060E94D9
:1004EA00C4084A932A93AC89BD8954DEFE017696E4
:1004FA000E9422061EC0E33739F40E941B060E949E
:10050A002A060E9422060EC0E037C1F40E941B068A
:10051A000E942A06EE87FF87AE85BF850E94950452
:10052A001E2F08600F77403011F0411708F001C004
:10053A00142F40E0E0E0EC8B30E06DC0E43611F0BF
:10054A00E93611F4046002C0E537A1F4EAE0EC8B65
:10055A0001FF08C0E0E0FAEC6AE97BE30E942F069B
:10056A001AE022C0E0E1F7E260E070E00E942F06A4
:10057A0015E01AC0E83511F4086003C0E83709F03D
:10058A00EAC0E0E1EC8B01FF08C0E0E0F0E060E0E7
:10059A0070E10E942F0618E007C0E0E0F0E160E099
:1005AA0070E00E942F0614E0403011F00F7701C06E
:1005BA0041E001FF08C00E941B060E940F06149624
:1005CA000E94AF080FC002FF07C00E941B060E94CC
:1005DA002A060E94520806C00E941B060E942A068A
:1005EA0066277727EA87FB876C877D8702FF12C019
:1005FA00AD85AA2342F40E941D060E9444080E9467
:10060A001606EDE2ED8BED89E03019F01F5F4F5FC2
:10061A0001C00B7F342F00FD14C0151710F43517D5
:10062A0008F00FC007FF08C002FF04C00B7F2D8926
:10063A00115001C020E301C020E20E94F40551508C
:10064A00ECCF141790F4006102FF06C00E94340632
:10065A0009F0515011504150E0E3EA930E94090613
:10066A00503009F051504150ECCF312FEC89E03035
:10067A00B9F43030A1F003FF06C0EE85FF8525915D
:10068A00EE87FF8705C0AE85BF852D91AE87BF87F0
:10069A000E94F405503009F051503150EACF51C050
:1006AA000E9446060E946A082E2F2A3030F003FF65
:1006BA0002C0295C01C0295A01C0205D04FD21C085
:1006CA00213360F4A889B9898A899B89A130E0E03D
:1006DA00BE07E0E08E07E0E09E0709F40BC043176F
:1006EA0040F4531710F000FF01C010C020E207FFCA
:1006FA0008C020E3006102FF04C00E94340609F02A
:10070A0051500E94F405503009F0515031500E9466
:10071A0046060E949B080E941606EC89A889B98998
:10072A008A899B89FF27662777270E946A080E9481
:10073A002F06E889F9896A897B890E94DB0809F012
:10074A00AFCF00FF08C0503031F05150E0E2EA93D9
:10075A000E940906F8CF10E00CCEAE81BF810E943C
:10076A00AB080E94E608EF966F960895FF92F82E5E
:10077A0026970E94E1080E944F06309719F4EFEF7E
:10078A00FFEF23C0DE0116960E9440088D010E94E9
:10079A004F06EE83FF83E0E0E887E987DE011A96D9
:1007AA000E9440080E94AB08FA93EA931A930A93AC
:1007BA00E5E9F0E0FA93EA93DE011A96BDDD9F01BE
:1007CA00AE81BF81E0E0EC93F9010E94E8082A9625
:1007DA00FF900895AA93EBB3EF70AE2FE881E07F04
:1007EA00EA2BEBBB8DE08A95F1F7DA9A8DE08A95D0
:1007FA00F1F7DA988DE08A95F1F777C0AA93A88184
:10080A00E9DFE881E295E883A881E4DF85E88A9553
:10081A00F1F76BC0AA93E881F0E0EC57FD4FE08155
:10082A00A981AE0FEBDF5980488022960895A2E095
:10083A000E945606ACE0E2DFA1E00E945606E0E024
:10084A004E2E5E2E0895AA93A881AA3011F057144D
:10085A0048F0E0E0EA934394A42DDCDFA881AA30B3
:10086A0009F443C05394D89AA881C8DFD8983DC0E8
:10087A00BA93AA931A93A981BA81ED91A983BA83EB
:10088A001E2FE03019F0A12FDEDFF5CF1881239655
:10089A000895AA93EAB3E06FEABBD29AD09AD19AA2
:1008AA00DA98D898D9987880E881E058E093860257
:1008BA00E881E054E0938702A4E1B0E00E948D064B
:1008CA000E945C060E945C060E945C06A0E282DF2F
:1008DA0088EC90E00197F1F7A8E290DFA4E08EDFC0
:1008EA00A5E88CDFA6E08ADFA2DF21960895BA93F5
:1008FA00AA93E991F991A991B991CD0105900D9227
:10090A000020E1F7FC010895BA93AA93A991B9913D
:10091A00EE27FF276D91662311F03196FBCF0895DC
:10092A00BA93AA93AA27BB27E991F99105900020C7
:10093A0011F01196FBCFFD0108950E94C9087B8131
:10094A006A81F981E88177FB770F67FD7160972FDC
:10095A009E5781F078F0983190F4AA27BB27882710
:10096A0008948795B795A7959A95D1F7EA23FB231B
:10097A00682305C0E8947727EE27FF2766276F7755
:10098A00769508F4606877F9A991B9918991999156
:10099A00EA17FB076807790797FB08950E94C908B9
:1009AA000E94BA080E94A2040E94BF0819F40E9479
:1009BA00B50809C0E6F70E94B508A0E0B0E080E8F3
:1009CA009FE30E94360724960895A6D0E0E0EA83C2
:1009DA00EFE3EB831A930A93EB85FC85EF3FAFEFC6
:1009EA00FA0731F46CD1AAE6B0E00E947C048AC00E
:1009FA00EF3FAFE7FA0731F462D1ABE6B0E00E940D
:100A0A007C0480C0AC85AA2352F4E985FA856B85FB
:100A1A007C850E94970658D15CD1EDE2EC93A885BB
:100A2A00A73010F0E6E0E8871885E12F1150E03092
:100A3A0021F056D1B6D059D1F8CF5CD10E943D07EA
:100A4A0043D110E0E0E0F0E060E87FE34ED152D11C
:100A5A000E94200868F044D191D047D11F5F173215
:100A6A0030F02DD1AFE6B0E00E947C044BC0EFCF4E
:100A7A00103021F42ED1E0E3EC9320C0E12F115085
:100A8A00E030E1F02DD18DD085D0DF01CB010E947D
:100A9A00D3042BD12FD10E94DB070E94CA060E2F46
:100AAA0018D18DD0F0E01CD10E9452080E94030791
:100ABA000E948D0728D188D007D1E0CFE885E030A1
:100ACA00E9F007D1EEE2EC93E885E150E887EF5FC1
:100ADA00A9F019D153D0F8D0E985FA856B857C85C0
:100AEA000E94CA060E2FF5D06AD0F0E00CD10E94FF
:100AFA0052080E94030768D0E7D0E6CFAE81BF81D3
:100B0A00E0E0EC93198108812D960895ED91FD910D
:100B1A003196FE93EE930895BA93AA932497E0E050
:100B2A00E883E9830895AC81BD818E819F81E0E0ED
:100B3A00F0E060E271E40E948D07EC83FD836E832E
:100B4A007F830895EC81FD816E817F81AC85BD85AF
:100B5A008E859F850E9420080895AC85BD858E8567
:100B6A009F850895EDECFCEC6CEC7DE30E948D070B
:100B7A00EC87FD876E877F873F5F0895E0E0F0E0AE
:100B8A0060E271E40E948D070895EC87FD876E8705
:100B9A007F870895A0E0B0E080E09FE30E943D07D0
:100BAA000895EDECFCEC6CEC7DE30E948D07089552
:100BBA00A885B9851196A887B98711970895E02F56
:100BCA00E05DEC93E02F08950E94CE080E9436075C
:100BDA000895E885F9853196E887F98708952A9373
:100BEA00AF81B885E985FA8509950895FE01E65A27
:100BFA00FF4F0190F081E02D08953497DE01A65A47
:100C0A00BF4FED93FC930895AF81B885E985FA85C6
:100C1A0009950895DE01A65ABF4F0D90BC91A02DEB
:100C2A000895EA87FB876C877D870895DFDFE5CF24
:100C3A00EA85FB856C857D850895EE87FF87AE85FD
:100C4A00BF850E9489041E2F0895E4DF14960E942E
:100C5A00AB080895E88BF98B6A8B7B8B08950B7F21
:100C6A00ED89EA93DE01A95ABF4F0D90BC91A02DE0
:100C7A00FE01E75AFF4F0190F081E02D09955030AF
:100C8A000895E889F9896A897B89AA85BB858C8553
:100C9A009D850895DE011C960E9440080E94AB08BB
:100CAA0008950E940304A3E0B0E00C948D06A0E32B
:100CBA000E94EF0388EC90E00197F1F70895EE8126
:100CCA00FF81FA93EA930895E987FA876B877C870D
:100CDA000895AE81BF811196AE83BF83119708959F
:100CEA00AA81BB818C819D810895EA83FB836C83F1
:100CFA007D830895EA81FB816C817D81A985BA850E
:100D0A008B859C850895A985BA858B859C850895D0
:100D1A00109639F0A89580ED97E00197F1F71197B1
:100D2A00C9F7089530976040704009F070580895E7
:100D3A00552342F4503811F4E0FF04C03196691F7C
:100D4A00791F6BF050E8572711F45F93CFC05F3FCC
:100D5A0031F0660F000C57956795752F08955F93CC
:100D6A0000200AF0CFC0C8C050E8192E1522880FFB
:100D7A00991F9527550F879550E8072E0522660F6C
:100D8A00771F7527550F67950895689401C0E894F1
:100D9A005F93F2DF703818F07F3F08F4A7C056E17E
:100DAA00571BAAF4519558300EF4593030F0EFEF32
:100DBA00FFEF6FEF7FE777F91AC077275523B9F06E
:100DCA00EE0FFF1F661F771F5A95D1F710C07727BE
:100DDA00583028F0EF2FF62F672F5850F9CF5523A8
:100DEA0031F076956795F795E7955A95D1F70020F2
:100DFA000AF445D15F910895689401C0E894309748
:100E0A0060407040B1F0002426F0772312F4009479
:100E1A0036D1172E7EE1112032F07A95EE0FFF1FA0
:100E2A00661F111CF9CFEF2FF62F612D5F938ADF12
:100E3A005F9108954F93AF01FD01DA01AB01BC0147
:100E4A00CA01402D012C142E4F910895EA0FFB1F61
:100E5A00681F0895E095F0956095EF5FFF4F6F4F1B
:100E6A0008955F9381DF903871F150E8152604C028
:100E7A005F937ADF903839F1703821F1572F591B77
:100E8A002BF112F4D7DFFACF583118F0AA27BB2773
:100E9A008827583028F0AB2FB82F88275850F9CF19
:100EAA00552329F08695B795A7955A95D9F7502DC8
:100EBA00512572F0CBDF38F46795F795E79573956E
:100ECA0013F420C0B7DF3EDF5F910895D8F7FBCF58
:100EDA00EA1BFB0B680B51F010F40094BBDF66238E
:100EEA0092F3EE0FFF1F661F7A95CBF7EE27FF27C7
:100EFA00662777275F910895EFEFFFEF6FE77FEFA0
:100F0A005F910895EFEFFFEF6FE77FE75F91089535
:100F1A005F932ADF703851F3903841F30124089423
:100F2A00791F23F41CF300203AF3ECCF0F921F939E
:100F3A002F933F934F93112722279927689FA00148
:100F4A008F9F302D410D591F6B9F300D411D591F29
:100F5A008E9F27D0BF9F25D06A9F23D0BE9F1DD0CA
:100F6A00AF9F1BD0AE9F110D291F391F491F591F53
:100F7A00E32FF42F652F522F4F913F912F911F91FD
:100F8A000F9066232AF0550FEE1FFF1F661F02C03F
:100F9A0073954BF2CDDE5F910895100D211D391F17
:100FAA0002C0200D311D491F591F08955F93DCDED1
:100FBA00703821F411200AF49FCFA4CF903809F495
:100FCA0095CF01240894970B1BF4D4F30020F3CF98
:100FDA00792F1F932F933F934F9311241127222781
:100FEA0033274427552790E2AE17BF0786074107E4
:100FFA0030F0AE1BBF0B860B410B089401C08894DE
:10100A00551F221F331F111CAA1FBB1F881F441FF5
:10101A009A9551F7F901612D4F913F912F911F91A7
:10102A00662332F0550FEE1FFF1F661F7A9543F2B3
:10103A007FDE5F91089599239AF0772342F09717FC
:10104A0048F029F4AE17BF07860720F031F09894CC
:10105A008894089598940894089518948894089503
:10106A007723C2F7971798F3A9F7EA17FB076807D8
:10107A0088F399F3ECCF0024AF0DB01D0895F095D5
:10108A0060957095E195FF4F6F4F7F4F0895FE2F42
:10109A00FF0FFF0B6F2F7F2F08956F2F660F660BC1
:1010AA00762F0895002498E0AA0F001C0E1A10F457
:1010BA000E0E01C0A1609A95B9F7EA2FA02D0895E6
:1010CA0039D0F0DF0EF4E19508953F934F935F9383
:1010DA00002411244427552730E2AA0FBB1F881F7A
:1010EA00991F001C111C441F551F0E1A1F0A460B7C
:1010FA00570B28F40E0E1F1E461F571F01C0A16072
:10110A003A9559F7FD01BC01D001CA015F914F918F
:10111A003F910895E894A7FF02C0A1956894E7FD5E
:10112A00E195C0DFEA2F0EF4E1950895CEDFFD01C7
:10113A00BC010895E894E7FF02C0E1956894A7FF0F
:10114A0004C0A19500F8039400FA0895ED91FC916A
:10115A0011970895ED91FD916D917C9113970895E2
:10116A00E881F9816A817B810895A881B9818A81A0
:10117A009B810895E883F9836A837B8308957A9330
:10118A006A93FA93EA9308959A938A93BA93AA93DD
:10119A000895182E862F612D192E972F712D1B2E2B
:1011AA00BF2FF12D1A2EAE2FE12D089530976040F2
:1011BA00704008955A934A933A932A931A930A933A
:1011CA0008955D814C813B812A81198108810895A6
:00000001FF
