:040000000C9442001A
:100004000C9400000C9400000C9400000C9400006C
:100014000C9400000C9400000C9400000C9400005C
:100024000C9474000C9400000C9400000C940000D8
:100034000C9400000C9400000C9400000C9400003C
:100044000C9400000C946F000C9400000C940000BD
:100054001027E80364000A000100001000011000EA
:100064000100000000004849210080C00400040091
:100074006600040060016A00020064016E00000072
:10008400F894EE27ECBBF1E0FBBFEBBFE5BF8DE0DE
:10009400A2E0BB27ED938A95E9F780E094E0A0E61F
:1000A400ED930197E9F7E0E7F0E0859195910097EA
:1000B40061F0A591B59105901590BF01F0010590EF
:1000C4000D920197E1F7FB01F0CFEFE5EDBFE4E01E
:1000D400EEBFC0E6D1E00C94A500EA93E1E05E2E09
:1000E400E99118950A921A92FA926A937A938A93EA
:1000F4009A93AA93BA93EA93FA93EFB7EA93E2EB4B
:10010400E2BF7394E8ECE71530F47724E1E0E415FA
:1001140011F4442455D0E1E0E51539F4A0E6B1E04A
:1001240070D05524E1E04E2E7724E991EFBFF99188
:10013400E991B991A9919991899179916991F990EC
:10014400199009901895E5E0E3BFE1E0E9BFE2EB1F
:10015400E2BFE0E0ECBFEBB7E062EBBFA0E162D04E
:100164007894FFCFFFCFAA93EBB3EF70AE2FE88163
:10017400E07FEA2BEBBB8DE08A95F1F7DA9A8DE00C
:100184008A95F1F7DA988DE08A95F1F777C0AA930A
:10019400A881E9DFE881E295E883A881E4DF85E8C6
:1001A4008A95F1F76BC0AA93E881F0E0EC59FE4F11
:1001B400E081A981AE0FEBDF6980988022960895D3
:1001C400A2E00E944201ACE0E2DFA1E00E94420111
:1001D400E0E09E2E6E2E0895AA93A881AA3011F015
:1001E400681448F0E0E0EA939394A92DDCDFA88139
:1001F400AA3009F443C06394D89AA881C8DFD89878
:100204003DC0BA93AA931A93A981BA81ED91A983A7
:10021400BA831E2FE03019F0A12FDEDFF5CF18814D
:1002240023960895AA93EAB3E06FEABBD29AD09AD0
:10023400D19ADA98D898D9988880E881E058E093E0
:100244006601E881E054E0936701A4E1B0E00E9414
:1002540050010E9448010E9448010E944801A0E206
:1002640082DF88EC90E00197F1F7A8E290DFA4E048
:100274008EDFA5E88CDFA6E08ADFA2DF2196089551
:100284000E94C900A3E0B0E00C945001A0E30E94D6
:10029400B50088EC90E00197F1F70895109639F0D5
:1002A400A89580ED97E00197F1F71197C9F70895A4
:00000001FF
