:0E0000000C9444000C9400000C9400000C942E
:10000E0000000C9400000C9400000C9400000C9462
:10001E0000000C9400000C9471000C9400000C94E1
:10002E0000000C9400000C9400000C9400000C9442
:10003E0000000C9400000C9400000C9400000C9432
:10004E0000000C9400001027E80364000A00010071
:10005E00001000011000010001000C023811000018
:10006E0000003F065B4F666D7D077F6F0A00040040
:10007E0066000A00600170000000F894EE27ECBBE9
:10008E00F1E0FBBFEBBFE5BF8DE0A2E0BB27ED9338
:10009E008A95E9F780E094E0A0E6ED930197E9F701
:1000AE00EAE7F0E085919591009761F0A591B59101
:1000BE0005901590BF01F00105900D920197E1F7A3
:1000CE00FB01F0CFEFE5EDBFE4E0EEBFC0E6D1E01F
:1000DE000C94B9000A921A92FA926A937A938A93BE
:1000EE009A93AA93BA93EA93FA93EFB7EA93E3E853
:1000FE00E2BFE42DE095E8BB44D0440C551C0E94B1
:10010E003D0118F4E1E0F0E02F01F50131965F01B9
:10011E00E8EEF3E0EA15FB05B8F4AA24BB24E1E00F
:10012E00ED1511F4DD2402C0E1E0DE2E8394EBE345
:10013E00E81550F488249394E91530F499246394C7
:10014E00E7E1E61508F46624E991EFBFF991E9912C
:10015E00B991A9919991899179916991F990199093
:10016E0009901895E3E0E3BFE3E8E2BFE0E0ECBFFF
:10017E00E1E0E9BFE8BBEFEFEABBE7BB7894FFCF66
:10018E00FFCFE1E0ED15E1F5E1E0F0E0E415F50576
:10019E0019F40E9442012FC0E2E0F0E0E415F505EB
:1001AE0011F4A82D23C0E4E0F0E0E415F50539F4D0
:1001BE000E944901E05AFE4FE081E0581FC0E8E07E
:1001CE00F0E0E415F50511F4A92D10C0E0E1F0E022
:1001DE00E415F50539F40E945001E05AFE4FE08116
:1001EE00E0580CC00E943D0151F4A62DB0E0EAE0AB
:1001FE00F0E00E946E01E05AFE4FE081EBBB35C08D
:10020E00DD2099F5E1E0F0E0E415F50519F40E9422
:10021E00420127C0E2E0F0E0E415F50511F4A82D47
:10022E001BC0E4E0F0E0E415F50519F40E94490165
:10023E0018C0E8E0F0E0E415F50511F4A92D0CC0A6
:10024E00E0E1F0E0E415F50519F40E94500109C053
:10025E000E943D0151F4A62DB0E0EAE0F0E00E94CC
:10026E006E01E05AFE4FE081EBBB0895E0E2F0E054
:10027E00E415F5050895A82DBB27EAE0F0E00E94ED
:10028E0073010895A92DBB27EAE0F0E00E947301E7
:10029E000895A62DBB27EAE0F0E00E9473010895B1
:1002AE00F195E195F04008950024112490E1AA0FF4
:1002BE00BB1F001C111C0E1A1F0A18F40E0E1F1E57
:1002CE0001C0A1609A9599F7FD01D001089512D051
:1002DE00EBDF0EF4E5DF0895E894B7FF04C0A095B8
:1002EE00B09511966894F7FDDBDFDEDFFD010EF4AD
:1002FE00D7DF0895E894F7FF02C0D2DF6894B7FF06
:10030E0006C0A095B095119600F8039400FA0895D2
:00000001FF
