:080000000C9445000C94000073
:100008000C9400000C9400000C9400000C94000068
:100018000C9400000C9400000C9400000C94000058
:100028000C9400000C9400000C9400000C94000048
:100038000C9400000C9400000C9400000C94000038
:100048000C9400000C9400000C9400001027E803A6
:1000580064000A0001000010000110000100202DBA
:100068000008253032643A253032643A253032644B
:10007800000080C0040004006600020080017A00CD
:100088000000F894EE27ECBBF1E0FBBFEBBFE5BF47
:100098008DE0A2E0BB27ED938A95E9F780E094E034
:1000A800A0E6ED930197E9F7ECE7F0E085919591EB
:1000B800009761F0A591B59105901590BF01F001E9
:1000C80005900D920197E1F7FB01F0CFEFE5EDBF49
:1000D800E4E0EEBFC0E6D1E00C947200A0E18CD061
:1000E80059D05394EBE3E51550F455244394E415A3
:1000F80030F444247394E7E1E71508F47724E0E644
:10010800F1E0FA93EA93EAE6F0E0FA93EA93E72D4E
:100118000E94EF02E42D0E94EF02E52D0E94EF02FB
:100128008CE00E94A2026096A0E6B1E054D0A8EE4E
:10013800B3E00E942F03D4CFFFCFAA93EBB3EF70A5
:10014800AE2FE881E07FEA2BEBBB8DE08A95F1F7D3
:10015800DA9A8DE08A95F1F7DA988DE08A95F1F7C9
:1001680077C0AA93A881E9DFE881E295E883A881AE
:10017800E4DF85E88A95F1F76BC0AA93E881F0E09F
:10018800E058FE4FE081A981AE0FEBDF69809880CF
:1001980022960895A2E00E94F502ACE0E2DFA1E019
:1001A8000E94F502E0E09E2E6E2E0895AA93A88183
:1001B800AA3011F0681448F0E0E0EA939394A92D6E
:1001C800DCDFA881AA3009F443C06394D89AA881D7
:1001D800C8DFD8983DC0BA93AA931A93A981BA8167
:1001E800ED91A983BA831E2FE03019F0A12FDEDF2D
:1001F800F5CF188123960895AA93EAB3E06FEABB76
:10020800D29AD09AD19ADA98D898D9988880E881E1
:10021800E058E0938201E881E054E0938301A4E18F
:10022800B0E00E942F030E94FB020E94FB020E9482
:10023800FB02A0E282DF88EC90E00197F1F7A8E2E8
:1002480090DFA4E08EDFA5E88CDFA6E08ADFA2DFDE
:1002580021960895BA93AA931A930A93AA81BB8107
:1002680012960E944103309759F1AA81BB811496D6
:100278000E9441038F01309761F00230E0E01E07D1
:1002880098F0F80131978F01AA81BB811496ED93FC
:10029800FC93AA81BB811296ED91FD913196FE9354
:1002A800EE933197AC81A083AA81BB810E94410360
:1002B800FF232AF0ED91FD913196FE93EE9306C04F
:1002C800AA81BB81EFEFFFEFED93FC9319810881C1
:1002D80025960895BA93AA9326970E944E0310E094
:1002E800AC85BD85E0E0F0E0ED93FC93EA89FB89FD
:1002F8003196EA8BFB8B3197E4912E2FE03009F48D
:1003080015C1E12FE03039F4253211F411E002C0B3
:100318000E9403030AC1E130A9F4253219F40E94AE
:10032800030302C112E040E000E02D3211F401E0C5
:10033800FCC02B3211F44BE2F8C0203211F440E239
:10034800F4C002C0E23039F450E013E0203311F475
:100358000068EBC003C0E33009F0E7C0203310F0B9
:100368002A3308F007C0AAE05A9F502DE22FE05325
:100378005E0FDBC0E22FE33649F40E940A03E889E6
:10038800F989A481AA930E941003CEC0E33741F4EF
:100398000E940A030E9416030E94D6021E2F0AC05A
:1003A800E03761F40E940A030E9416030E94E202E9
:1003B8001E2F086002600F7730E034C0E43611F079
:1003C800E93611F4046002C0E53731F4E4E5F0E001
:1003D800EE83FF8315E00CC0E83511F4086003C014
:1003E800E83709F0A1C0EEE5F0E0EE83FF8314E002
:1003F80002FF14C00E940A030E942003AB85AA23AF
:100408003AF4EA85FB850E943D03EA87FB874DE2C3
:10041800403011F01F5F01C00B7F04C00E940A0327
:100428000E94200300FD11C0151778F407FF08C0CB
:1004380002FF04C00B7F242F115001C020E301C02C
:1004480020E20E9403035150EFCF312F01FF17C064
:100458003030A1F003FF06C0EE81FF812591EE83C5
:10046800FF8305C0AE81BF812D91AE83BF830E94FB
:100478000303503009F051503150EACF4BC020E30C
:10048800EE81FF810E944503E887F987EE81FF81AD
:100498003296EE83FF83E885F985AA85BB85AE177A
:1004A800BF0750F02F5FA885B985EA85FB85EA1B51
:1004B800FB0BEA87FB87EFCF2A3328F003FF02C044
:1004C800295F01C0295D04FD1AC0213320F4A885E5
:1004D800B985119709F409C0531710F000FF01C03E
:1004E80013C020E207FF0BC020E3006102FF07C032
:1004F8000B7F4A930E941003503009F051500E941C
:100508000303503009F051503150A885B98512972E
:1005180008F0B5CF00FF08C0503031F05150E0E28C
:10052800EA930E941003F8CF10E0E0CEAC85BD85B9
:100538000E9441030E94550364960895FF92F82E85
:1005480026970E9450030E942803309719F4EFEF72
:10055800FFEF23C0DE0116960E9439038D010E9429
:100568002803EE83FF83E0E0E887E987DE011A9637
:100578000E9439030E944103FA93EA931A930A935B
:10058800EEE2F1E0FA93EA93DE011A96A3DE9F0108
:10059800AE81BF81E0E0EC93F9010E9457032A96EF
:1005A800FF900895BA93AA93A991B991EE27FF27CE
:1005B8006D91662311F03196FBCF0895BA93AA93F3
:1005C800AA27BB27E991F9910590002011F011960F
:1005D800FBCFFD010895FF27662777270E9449036F
:1005E80008950E94B500A3E0B0E00C942F03A0E3A7
:1005F8000E94A10088EC90E00197F1F708952A93F2
:10060800AD85BE85EF85F88909950895E889F9894A
:100618003497E88BF98B0895AD85BE85EF85F88909
:1006280009950895A889B98914960E944103EE8313
:10063800FF83AE81BF810895A889B98914960E9465
:100648004103EA87FB870895DE011C960E9439035F
:100658000E9441030895109639F0A89580ED97E01F
:100668000197F1F71197C9F708950024AF0DB01D50
:100678000895F195E195F0400895ED91FC91119759
:1006880008950590F491E02D08957A936A93FA936A
:10069800EA9308955A934A933A932A931A930A939A
:1006A80008955D814C813B812A81198108810895D3
:00000001FF
