:0A0000000C9440000C9400000C94D6
:10000A0000000C9400000C9400000C9400000C9466
:10001A0000000C9400000C9400000C9400000C9456
:10002A0000000C9400000C9400000C9400000C9446
:10003A0000000C9400000C9400000C9400000C9436
:10004A0000000C9400000C9400001027E8036400E0
:10005A000A000100001000011000010000003F0624
:10006A005B4F666D7D077F6F0100050066000A0021
:10007A00600168000000F894EE27ECBBF1E0FBBFDA
:10008A00EBBFE5BF8DE0A2E0BB27ED938A95E9F7C8
:10009A0080E094E0A0E6ED930197E9F7E2E7F0E06B
:1000AA0085919591009761F0A591B591059015906C
:1000BA00BF01F00105900D920197E1F7FB01F0CF26
:1000CA00EFE5EDBFE4E0EEBFC0E6D1E00C946D00D1
:1000DA00EFEFE7BBE0E0E8BB5524EAE05E1660F428
:1000EA00E52DF0E0E05AFE4FE081E8BBACE2B1E07A
:1000FA000E9483005394F1CFEFCFFFCF109639F0CF
:10010A00A89580ED97E00197F1F71197C9F708953F
:00000001FF
