:0A0000000C9449000C9400000C94CD
:10000A0000000C9400000C9400000C9400000C9466
:10001A0000000C9400000C9400000C9400000C9456
:10002A0000000C9476000C9400000C9400000C94D0
:10003A0000000C9400000C9400000C9400000C9436
:10004A0000000C9400000C9400001027E8036400E0
:10005A000A00010000100001100001000000000069
:10006A004C45445F4F4E4C45445F4F4680C00400A8
:10007A0004006600060068016A0006006F0170004D
:10008A000200760176000000F894EE27ECBBF1E05E
:10009A00FBBFEBBFE5BF8DE0A2E0BB27ED938A95DE
:1000AA00E9F780E094E0A0E6ED930197E9F7E8E745
:1000BA00F0E085919591009761F0A591B591059031
:1000CA001590BF01F00105900D920197E1F7FB0130
:1000DA00F0CFEFE5EDBFE4E0EEBFC0E6D1E00C946F
:1000EA00B8000A921A92FA926A937A938A939A9326
:1000FA00AA93BA93EA93FA93EFB7EA93A42DB0E0DE
:10010A00A05ABE4FECB1EC93E42D0E945801AD30D9
:10011A00B9F4442444D0E13011F4A89A04C053D06D
:10012A00E13009F4A8987724E8E07E1640F4E72D38
:10013A00F0E0E05AFE4FA0E0A0837394F5CF05C02B
:10014A004394E7E04E1608F04424E991EFBFF99191
:10015A00E991B991A9919991899179916991F990C6
:10016A00199009901895E8E9EAB9E6E8E0BDE0E0F7
:10017A00E0BDE3E3E9B9E1E0E4BBE0E0E5BBA0E12F
:10018A000E942A017894A99AA4E6B0E00E946B0121
:10019A00A998A4E6B0E00E946B01F5CFFFCF1A93AD
:1001AA0010E010E0163070F4E12F0E945801E12FA0
:1001BA00F0E0E859FE4FE081EA1711F0E0E017C0DD
:1001CA001F5FF0CF13C01A9310E010E0163070F4DE
:1001DA00E12F0E945801E12FF0E0E159FE4FE08142
:1001EA00EA1711F0E0E003C01F5FF0CFE1E01991D8
:1001FA000895AA93EBB3EF70AE2FE881E07FEA2B64
:10020A00EBBB8DE08A95F1F7DA9A8DE08A95F1F7E2
:10021A00DA988DE08A95F1F744C0AA93A881E9DFBC
:10022A00E881E295E883A881E4DF85E88A95F1F719
:10023A0038C0A2E00E945D01ACE0EFDFA1E00E94BD
:10024A005D01E0E09E2E6E2E0895AA93EAB3E06F58
:10025A00EABBD29AD09AD19ADA98D898D998888053
:10026A00E881E058E0937801E881E054E09379016D
:10027A00A4E1B0E00E946B010E9463010E94630145
:10028A000E946301A0E2B5DF88EC90E00197F1F7E4
:10029A00A8E2C3DFA4E0C1DFA5E8BFDFA6E0BDDFB7
:1002AA00C8DF21960895F0E0E05AFE4FA081089534
:1002BA000E941201A3E0B0E00C946B01A0E30E943B
:1002CA00FE0088EC90E00197F1F70895109639F056
:1002DA00A89580ED97E00197F1F71197C9F708956E
:00000001FF
