:040000000C94430019
:100004000C9400000C9400000C9400000C9400006C
:100014000C9400000C9400000C9400000C9400005C
:100024000C9400000C9400000C9400000C9400004C
:100034000C9400000C9400000C9400000C9400003C
:100044000C9400000C9400000C9400000C9400002C
:10005400000074656D703D2564002D4E414E000016
:1000640080C001002D4E414E00494E460000020062
:100074000600540002008401640001008801660047
:100084000000F894EE27ECBBF1E0FBBFEBBFE5BF4B
:100094008DE0A2E0BB27ED938A95E9F780E094E038
:1000A400A0E6ED930197E9F7E2E7F0E085919591F9
:1000B400009761F0A591B59105901590BF01F001ED
:1000C40005900D920197E1F7FB01F0CFEFE5EDBF4D
:1000D400E4E0EEBFC0E6D1E00C947000E6B1E7685E
:1000E400E6B9E7B1E7B9A0E10E948304369AA8EE25
:1000F400B3E00E94C206E4B1F0E0DF01E5B1FE2FF7
:10010400E0E0EA0FFB1F2F01662777270E943807DC
:10011400A0E0B0E080EA90E40E94C207DF01CB01D6
:10012400E0E0F0EC6FE774E40E941008E0938001D3
:10013400F09381016093820170938301A091800107
:10014400B09181018091820190918301E0E0F0E01F
:1001540068EC72E40E94C2070E9401073F010E94FA
:100164005104E0E6F1E0FA93EA93E6E5F0E0FA936D
:10017400EA93F3010E9487080E94F90884E00E9430
:10018400F0032896A0E6B1E00E947204AFCFFFCF3F
:10019400BA93AA931A930A93AA81BB8112960E94D6
:1001A400E008309729F1AA81BB8114960E94E008E7
:1001B4008F01309761F00230E0E01E0780F0F80113
:1001C40031978F01AA81BB811496ED93FC93AA8188
:1001D400BB8112960E94C0053197AC81A083AA818D
:1001E400BB810E94E008FF2312F00E94C00506C0F4
:1001F400AA81BB81EFEFFFEFED93FC931981088196
:10020400259608950E94C605E0E8EA83EFE3EB83B0
:100214000E941609EE85FF85EF3FAFEFFA0749F418
:10022400E885F985FA93EA93AEE5B0E00E94B1045B
:10023400B7C0EF3FAFE7FA0749F4E885F985FA93C9
:10024400EA93AFE5B0E00E94B104AAC0AB85A73041
:1002540010F0E6E0EB871B85E12F1150E03019F038
:100264000E94CD05F9CFEC85FD856E857F850E94C2
:10027400100921F430E00E94CD052DC03B850E9479
:10028400DC0509F008F40BC00E94CD050E94DC05D2
:1002940028F00E94E7050E94EC05F8CF0DC00E94EB
:1002A400DC0540F40E94E7050E94F8050E94FF0562
:1002B4003150F5CF0E94CD05EC85FD856E857F8597
:1002C4000E9404060E94FF050E94DC0520F00E94A3
:1002D400E7050E94EC0510E0EB85E117A8F1AC817D
:1002E400BD818E819F810E940B060E940406DF015E
:1002F400CB010E940805EC83FD836E837F830E94FB
:10030400E7050E9410080E94FF060E2F0E941206A5
:100314000E941906FF27662777270E943807AC81B9
:10032400BD818E819F810E94C2070E94E7050E94C1
:100334001E060E94FF05E12F1F5FE03069F60E9450
:100344001206EEE2EC93C8CF0E9423063197AA85E9
:10035400A08330302CF43195A885B985EDE203C033
:10036400A885B985EBE2EC930E9423060E9423063C
:100374003197BF01A32FEAE00E949A08E05DDB01F8
:10038400EC930E9423063197BF01A32FEAE00E9459
:10039400C408E05DDB01EC93A885B985E0E0EC934B
:1003A4000E941D0960960895BA93AA93EF976197E6
:1003B4000E94140910E0FE01E85AFF4F0190F081F9
:1003C400E02DE887F987FE01EA5AFF4F0190F0819A
:1003D400E02DEE83FF83AE81BF81E0E0F0E0ED939A
:1003E400FC93DE01A45ABF4F0E94C0053197E491EB
:1003F4002E2FE03009F4E9C1E12FE03039F4253241
:1004040011F411E002C00E942906DEC1E130C1F4FA
:10041400253219F40E942906D6C112E0E0E0ED8BE2
:1004240000E02D3211F401E0CFC12B3219F4EBE2DC
:10043400ED8BCAC1203219F4E0E2ED8BC5C102C0D4
:10044400E23039F450E013E0203311F40068BCC109
:1004540002C0E33091F4203310F02A3308F007C0CF
:10046400AAE05A9F502DE22FE0535E0FADC140E049
:100474002E3211F414E0A8C10FC0E43099F42033F3
:1004840010F02A3308F008C00062AAE04A9F402D09
:10049400E22FE0534E0F98C12C3619F4026015E098
:1004A40093C103C0E53009F08FC1E22FE33659F45C
:1004B4000E9430060E9437060E943006A481AA9347
:1004C4000E943E0680C1E53411F0E53609F403C00C
:1004D400E63609F048C0FE017696EE87FF870E9453
:1004E40044060E94E4080E944B060E945006AD8513
:1004F400AA2332F0AD89AB3259F0A03281F017C093
:100504000E9452060E94CC060E944B06EDE2ED8B3F
:1005140007FF05C0ED89EA930E943E0608C0EE85F8
:10052400FF853196EE87FF873197AD89A08305FF5C
:1005340046E0263651F40E9452060E94F9084A9376
:10054400AB89BC890E941F0509C00E9452060E9403
:10055400F9084A932A93AC89BD8954DEFE01769644
:100564000E9457061EC0E33739F40E9450060E94C9
:100574005F060E9457060EC0E037C1F40E94500681
:100584000E945F06EE87FF87AE85BF850E94CA047E
:100594001E2F08600F77403011F0411708F001C09A
:1005A400142F40E0E0E0EC8B30E06DC0E43611F055
:1005B400E93611F4046002C0E537A1F4EAE0EC8BFB
:1005C40001FF08C0E0E0FAEC6AE97BE30E946406FC
:1005D4001AE022C0E0E1F7E260E070E00E94640605
:1005E40015E01AC0E83511F4086003C0E83709F0D3
:1005F400EAC0E0E1EC8B01FF08C0E0E0F0E060E07D
:1006040070E10E94640618E007C0E0E0F0E160E0F9
:1006140070E00E94640614E0403011F00F7701C0CE
:1006240041E001FF08C00E9450060E94440614964F
:100634000E94E4080FC002FF07C00E9450060E94F7
:100644005F060E94870806C00E9450060E945F064B
:1006540066277727EA87FB876C877D8702FF12C0AE
:10066400AD85AA2342F40E9452060E9479080E9492
:100674004B06EDE2ED8BED89E03019F01F5F4F5F23
:1006840001C00B7F342F00FD14C0151710F435176B
:1006940008F00FC007FF08C002FF04C00B7F2D89BC
:1006A400115001C020E301C020E20E9429065150EC
:1006B400ECCF141790F4006102FF06C00E94690693
:1006C40009F0515011504150E0E3EA930E943E0674
:1006D400503009F051504150ECCF312FEC89E030CB
:1006E400B9F43030A1F003FF06C0EE85FF852591F3
:1006F400EE87FF8705C0AE85BF852D91AE87BF8786
:100704000E942906503009F051503150EACF51C0AF
:100714000E947B060E949F082E2F2A3030F003FF90
:1007240002C0295C01C0295A01C0205D04FD21C01A
:10073400213360F4A889B9898A899B89A130E0E0D2
:10074400BE07E0E08E07E0E09E0709F40BC0431704
:1007540040F4531710F000FF01C010C020E207FF5F
:1007640008C020E3006102FF04C00E94690609F08A
:1007740051500E942906503009F0515031500E94C6
:100784007B060E94D0080E944B06EC89A889B9898F
:100794008A899B89FF27662777270E949F080E94E2
:1007A4006406E889F9896A897B890E94100909F03D
:1007B400AFCF00FF08C0503031F05150E0E2EA936F
:1007C4000E943E06F8CF10E00CCEAE81BF810E949D
:1007D400E0080E941B09EF966F960895FF92F82E89
:1007E40026970E9416090E948406309719F4EFEFA9
:1007F400FFEF23C0DE0116960E9475088D010E944A
:100804008406EE83FF83E0E0E887E987DE011A9639
:100814000E9475080E94E008FA93EA931A930A93D7
:10082400EAECF0E0FA93EA93DE011A96BDDD9F014B
:10083400AE81BF81E0E0EC93F9010E941D092A9684
:10084400FF900895AA93E8B3EF70AE2FE881E07F9C
:10085400EA2BE8BB8DE08A95F1F7C29A8DE08A9580
:10086400F1F7C2988DE08A95F1F777C0AA93A88131
:10087400E9DFE881E295E883A881E4DF85E88A95E9
:10088400F1F76BC0AA93E881F0E0EC57FE4FE081EA
:10089400A981AE0FEBDF9980888022960895A2E0AB
:1008A4000E948B06ACE0E2DFA1E00E948B06E0E050
:1008B4008E2E9E2E0895AA93A881AA3011F09B141F
:1008C40048F0E0E0EA938394A82DDCDFA881AA3005
:1008D40009F443C09394C09AA881C8DFC0983DC06E
:1008E400BA93AA931A93A981BA81ED91A983BA8381
:1008F4001E2FE03019F0A12FDEDFF5CF18812396EB
:100904000895AA93E7B3E06FE7BBBA9AB89AB99A85
:10091400C298C098C198B880E881E058E0938601F5
:10092400E881E054E0938701A4E1B0E00E94C206AC
:100934000E9491060E9491060E949106A0E282DF25
:1009440088EC90E00197F1F7A8E290DFA4E08EDF55
:10095400A5E88CDFA6E08ADFA2DF21960895BA938A
:10096400AA93E991F991A991B991CD0105900D92BC
:100974000020E1F7FC010895BA93AA93A991B991D3
:10098400EE27FF276D91662311F03196FBCF089572
:10099400BA93AA93AA27BB27E991F991059000205D
:1009A40011F01196FBCFFD0108950E94FE087B8192
:1009B4006A81F981E88177FB770F67FD7160972F72
:1009C4009E5781F078F0983190F4AA27BB278827A6
:1009D40008948795B795A7959A95D1F7EA23FB23B1
:1009E400682305C0E8947727EE27FF2766276F77EB
:1009F400769508F4606877F9A991B99189919991EC
:100A0400EA17FB076807790797FB08950E94FE0819
:100A14000E94EF080E94D7040E94F40819F40E946F
:100A2400EA0809C0E6F70E94EA08A0E0B0E080E81E
:100A34009FE30E946B0724960895A6D0E0E0EA8322
:100A4400EFE3EB831A930A93EB85FC85EF3FAFEF5B
:100A5400FA0731F46CD1A8E6B0E00E94B1048AC070
:100A6400EF3FAFE7FA0731F462D1A9E6B0E00E94A4
:100A7400B10480C0AC85AA2352F4E985FA856B855C
:100A84007C850E94CC0658D15CD1EDE2EC93A8851C
:100A9400A73010F0E6E0E8871885E12F1150E03028
:100AA40021F056D1B6D059D1F8CF5CD10E9472074B
:100AB40043D110E0E0E0F0E060E87FE34ED152D1B2
:100AC4000E94550868F044D191D047D11F5F173276
:100AD40030F02DD1ADE6B0E00E94B1044BC0EFCFB1
:100AE400103021F42ED1E0E3EC9320C0E12F11501B
:100AF400E030E1F02DD18DD085D0DF01CB010E9413
:100B040008052BD12FD10E9410080E94FF060E2F3A
:100B140018D18DD0F0E01CD10E9487080E943807BC
:100B24000E94C20728D188D007D1E0CFE885E03001
:100B3400E9F007D1EEE2EC93E885E150E887EF5F56
:100B4400A9F019D153D0F8D0E985FA856B857C8555
:100B54000E94FF060E2FF5D06AD0F0E00CD10E945F
:100B640087080E94380768D0E7D0E6CFAE81BF81FE
:100B7400E0E0EC93198108812D960895ED91FD91A3
:100B84003196FE93EE930895BA93AA932497E0E0E6
:100B9400E883E9830895AC81BD818E819F81E0E083
:100BA400F0E060E271E40E94C207EC83FD836E838F
:100BB4007F830895EC81FD816E817F81AC85BD8545
:100BC4008E859F850E9455080895AC85BD858E85C8
:100BD4009F850895EDECFCEC6CEC7DE30E94C2076C
:100BE400EC87FD876E877F873F5F0895E0E0F0E044
:100BF40060E271E40E94C2070895EC87FD876E8766
:100C04007F870895A0E0B0E080E09FE30E94720730
:100C14000895EDECFCEC6CEC7DE30E94C2070895B2
:100C2400A885B9851196A887B98711970895E02FEB
:100C3400E05DEC93E02F08950E9403090E946B0786
:100C44000895E885F9853196E887F98708952A9308
:100C5400AF81B885E985FA8509950895FE01E65ABC
:100C6400FF4F0190F081E02D08953497DE01A65ADC
:100C7400BF4FED93FC930895AF81B885E985FA855C
:100C840009950895DE01A65ABF4F0D90BC91A02D81
:100C94000895EA87FB876C877D870895DFDFE5CFBA
:100CA400EA85FB856C857D850895EE87FF87AE8593
:100CB400BF850E94BE041E2F0895E4DF14960E948F
:100CC400E0080895E88BF98B6A8B7B8B08950B7F82
:100CD400ED89EA93DE01A95ABF4F0D90BC91A02D76
:100CE400FE01E75AFF4F0190F081E02D0995503045
:100CF4000895E889F9896A897B89AA85BB858C85E9
:100D04009D850895DE011C960E9475080E94E008E6
:100D140008950E943804A3E0B0E00C94C206A0E356
:100D24000E94240488EC90E00197F1F70895EE8185
:100D3400FF81FA93EA930895E987FA876B877C87A2
:100D44000895AE81BF811196AE83BF831197089534
:100D5400AA81BB818C819D810895EA83FB836C8386
:100D64007D830895EA81FB816C817D81A985BA85A3
:100D74008B859C850895A985BA858B859C85089566
:100D8400109639F0A89580ED97E00197F1F7119747
:100D9400C9F7089530976040704009F0705808957D
:100DA400552342F4503811F4E0FF04C03196691F12
:100DB400791F6BF050E8572711F45F93CFC05F3F62
:100DC40031F0660F000C57956795752F08955F9362
:100DD40000200AF0CFC0C8C050E8192E1522880F91
:100DE400991F9527550F879550E8072E0522660F02
:100DF400771F7527550F67950895689401C0E89487
:100E04005F93F2DF703818F07F3F08F4A7C056E113
:100E1400571BAAF4519558300EF4593030F0EFEFC7
:100E2400FFEF6FEF7FE777F91AC077275523B9F003
:100E3400EE0FFF1F661F771F5A95D1F710C0772753
:100E4400583028F0EF2FF62F672F5850F9CF55233D
:100E540031F076956795F795E7955A95D1F7002087
:100E64000AF445D15F910895689401C0E8943097DD
:100E740060407040B1F0002426F0772312F400940F
:100E840036D1172E7EE1112032F07A95EE0FFF1F36
:100E9400661F111CF9CFEF2FF62F612D5F938ADFA8
:100EA4005F9108954F93AF01FD01DA01AB01BC01DD
:100EB400CA01402D012C142E4F910895EA0FFB1FF7
:100EC400681F0895E095F0956095EF5FFF4F6F4FB1
:100ED40008955F9381DF903871F150E8152604C0BE
:100EE4005F937ADF903839F1703821F1572F591B0D
:100EF4002BF112F4D7DFFACF583118F0AA27BB2709
:100F04008827583028F0AB2FB82F88275850F9CFAE
:100F1400552329F08695B795A7955A95D9F7502D5D
:100F2400512572F0CBDF38F46795F795E795739503
:100F340013F420C0B7DF3EDF5F910895D8F7FBCFED
:100F4400EA1BFB0B680B51F010F40094BBDF662323
:100F540092F3EE0FFF1F661F7A95CBF7EE27FF275C
:100F6400662777275F910895EFEFFFEF6FE77FEF35
:100F74005F910895EFEFFFEF6FE77FE75F910895CB
:100F84005F932ADF703851F3903841F301240894B9
:100F9400791F23F41CF300203AF3ECCF0F921F9334
:100FA4002F933F934F93112722279927689FA001DE
:100FB4008F9F302D410D591F6B9F300D411D591FBF
:100FC4008E9F27D0BF9F25D06A9F23D0BE9F1DD060
:100FD400AF9F1BD0AE9F110D291F391F491F591FE9
:100FE400E32FF42F652F522F4F913F912F911F9193
:100FF4000F9066232AF0550FEE1FFF1F661F02C0D5
:1010040073954BF2CDDE5F910895100D211D391FAC
:1010140002C0200D311D491F591F08955F93DCDE66
:10102400703821F411200AF49FCFA4CF903809F42A
:1010340095CF01240894970B1BF4D4F30020F3CF2D
:10104400792F1F932F933F934F9311241127222716
:1010540033274427552790E2AE17BF078607410779
:1010640030F0AE1BBF0B860B410B089401C0889473
:10107400551F221F331F111CAA1FBB1F881F441F8B
:101084009A9551F7F901612D4F913F912F911F913D
:10109400662332F0550FEE1FFF1F661F7A9543F249
:1010A4007FDE5F91089599239AF0772342F0971792
:1010B40048F029F4AE17BF07860720F031F0989462
:1010C4008894089598940894089518948894089599
:1010D4007723C2F7971798F3A9F7EA17FB0768076E
:1010E40088F399F3ECCF0024AF0DB01D0895F0956B
:1010F40060957095E195FF4F6F4F7F4F0895FE2FD8
:10110400FF0FFF0B6F2F7F2F08956F2F660F660B56
:10111400762F0895002498E0AA0F001C0E1A10F4EC
:101124000E0E01C0A1609A95B9F7EA2FA02D08957B
:1011340039D0F0DF0EF4E19508953F934F935F9318
:10114400002411244427552730E2AA0FBB1F881F0F
:10115400991F001C111C441F551F0E1A1F0A460B11
:10116400570B28F40E0E1F1E461F571F01C0A16007
:101174003A9559F7FD01BC01D001CA015F914F9125
:101184003F910895E894A7FF02C0A1956894E7FDF4
:10119400E195C0DFEA2F0EF4E1950895CEDFFD015D
:1011A400BC010895E894E7FF02C0E1956894A7FFA5
:1011B40004C0A19500F8039400FA0895ED91FC9100
:1011C40011970895ED91FD916D917C911397089578
:1011D400E881F9816A817B810895A881B9818A8136
:1011E4009B810895E883F9836A837B8308957A93C6
:1011F4006A93FA93EA9308959A938A93BA93AA9373
:101204000895182E862F612D192E972F712D1B2EC0
:10121400BF2FF12D1A2EAE2FE12D08953097604087
:10122400704008955A934A933A932A931A930A93CF
:1012340008955D814C813B812A811981088108953B
:00000001FF
