:060000000C9439000C9481
:1000060000000C9400000C9400000C9400000C946A
:1000160000000C9400000C9400000C9400000C945A
:1000260000000C9400000C9400000C9400000C944A
:1000360000000C9400000C9400000C9400000C943A
:1000460000000C9400000C9400000C9400000000CA
:10005600006305003F065B4F666D7D077F6F0500F9
:10006600050054000A0060015A000000F894EE27CB
:10007600ECBBF1E0FBBFEBBFE5BF8DE0A2E0BB2729
:10008600ED938A95E9F780E094E0A0E6ED93019779
:10009600E9F7E4E6F0E085919591009761F0A59186
:1000A600B59105901590BF01F00105900D9201974D
:1000B600E1F7FB01F0CFEFE5EDBFE4E0EEBFC0E610
:1000C600D1E00C946600EFEFEABBE7BBE1E0F0E0BD
:1000D6003F01E0E0F1E06E167F06B0F45524E9E05A
:1000E600E51560F0E52DF0E0E05AFE4FE081EBBB50
:1000F600A4EFB1E00E9489005394F1CFE62DE0957C
:10010600E8BB660C771CE5CFE1CFFFCF109639F040
:10011600A8958AEF90E00197F1F71197C9F708952E
:00000001FF
