:0C0000000C9444000C9400000C940000D0
:10000C000C9400000C9400000C9400000C94000064
:10001C000C9400000C9400000C9400000C94000054
:10002C000C9400000C9400000C9400000C94000044
:10003C000C9400000C9400000C9400000C94000034
:10004C000C9400000C9400003D0A37422530322EEF
:10005C00326600002D4E414E000080C001002D4E36
:10006C00414E00494E46000004008001540002003D
:10007C00840166000100880168000000F894EE27F6
:10008C00ECBBF1E0FBBFEBBFE5BF8DE0A2E0BB2713
:10009C00ED938A95E9F780E094E0A0E6ED93019763
:1000AC00E9F7E4E7F0E085919591009761F0A5916F
:1000BC00B59105901590BF01F00105900D92019737
:1000CC00E1F7FB01F0CFEFE5EDBFE4E0EEBFC0E6FA
:1000DC00D1E00C947100A0E10E944F04E0E6F1E045
:1000EC00FA93EA93E8E5F0E0FA93EA93E091800161
:1000FC00F091810160918201709183010E94C50889
:10010C0084E00E94BC032896A0E6B1E00E943E0465
:10011C00A8EEB3E00E948E060E941D04DFCFFFCF35
:10012C00BA93AA931A930A93AA81BB8112960E943E
:10013C00AC08309729F1AA81BB8114960E94AC08B7
:10014C008F01309761F00230E0E01E0780F0F8017B
:10015C0031978F01AA81BB811496ED93FC93AA81F0
:10016C00BB8112960E948C053197AC81A083AA8129
:10017C00BB810E94AC08FF2312F00E948C0506C0C4
:10018C00AA81BB81EFEFFFEFED93FC9319810881FE
:10019C00259608950E949205E0E8EA83EFE3EB834D
:1001AC000E94E208EE85FF85EF3FAFEFFA0749F4B6
:1001BC00E885F985FA93EA93A0E6B0E00E947D0405
:1001CC00B7C0EF3FAFE7FA0749F4E885F985FA9332
:1001DC00EA93A1E6B0E00E947D04AAC0AB85A730EB
:1001EC0010F0E6E0EB871B85E12F1150E03019F0A1
:1001FC000E949905F9CFEC85FD856E857F850E945F
:10020C00DC0821F430E00E9499052DC03B850E944A
:10021C00A80509F008F40BC00E9499050E94A805D6
:10022C0028F00E94B3050E94B805F8CF0DC00E94BB
:10023C00A80540F40E94B3050E94C4050E94CB059A
:10024C003150F5CF0E949905EC85FD856E857F8533
:10025C000E94D0050E94CB050E94A80520F00E94A8
:10026C00B3050E94B80510E0EB85E117A8F1AC814D
:10027C00BD818E819F810E94D7050E94D005DF0130
:10028C00CB010E94D404EC83FD836E837F830E9498
:10029C00B3050E94DC070E94CB060E2F0E94DE05E0
:1002AC000E94E505FF27662777270E940407AC818B
:1002BC00BD818E819F810E948E070E94B3050E9492
:1002CC00EA050E94CB05E12F1F5FE03069F60E9422
:1002DC00DE05EEE2EC93C8CF0E94EF053197AA85BC
:1002EC00A08330302CF43195A885B985EDE203C09C
:1002FC00A885B985EBE2EC930E94EF050E94EF050F
:10030C003197BF01A32FEAE00E946608E05DDB0194
:10031C00EC930E94EF053197BF01A32FEAE00E94F6
:10032C009008E05DDB01EC93A885B985E0E0EC93E7
:10033C000E94E90860960895BA93AA93EF97619783
:10034C000E94E00810E0FE01E85AFF4F0190F08196
:10035C00E02DE887F987FE01EA5AFF4F0190F08102
:10036C00E02DEE83FF83AE81BF81E0E0F0E0ED9302
:10037C00FC93DE01A45ABF4F0E948C053197E49187
:10038C002E2FE03009F4E9C1E12FE03039F42532A9
:10039C0011F411E002C00E94F505DEC1E130C1F498
:1003AC00253219F40E94F505D6C112E0E0E0ED8B80
:1003BC0000E02D3211F401E0CFC12B3219F4EBE245
:1003CC00ED8BCAC1203219F4E0E2ED8BC5C102C03D
:1003DC00E23039F450E013E0203311F40068BCC172
:1003EC0002C0E33091F4203310F02A3308F007C038
:1003FC00AAE05A9F502DE22FE0535E0FADC140E0B2
:10040C002E3211F414E0A8C10FC0E43099F420335B
:10041C0010F02A3308F008C00062AAE04A9F402D71
:10042C00E22FE0534E0F98C12C3619F4026015E000
:10043C0093C103C0E53009F08FC1E22FE33659F4C4
:10044C000E94FC050E9403060E94FC05A481AA934D
:10045C000E940A0680C1E53411F0E53609F403C0A8
:10046C00E63609F048C0FE017696EE87FF870E94BB
:10047C0010060E94B0080E9417060E941C06AD854B
:10048C00AA2332F0AD89AB3259F0A03281F017C0FB
:10049C000E941E060E9498060E941706EDE2ED8B44
:1004AC0007FF05C0ED89EA930E940A0608C0EE8595
:1004BC00FF853196EE87FF873197AD89A08305FFC5
:1004CC0046E0263651F40E941E060E94C5084A9347
:1004DC00AB89BC890E94EB0409C00E941E060E94D5
:1004EC00C5084A932A93AC89BD8954DEFE017696E1
:1004FC000E9423061EC0E33739F40E941C060E949A
:10050C002B060E9423060EC0E037C1F40E941C0685
:10051C000E942B06EE87FF87AE85BF850E9496044E
:10052C001E2F08600F77403011F0411708F001C002
:10053C00142F40E0E0E0EC8B30E06DC0E43611F0BD
:10054C00E93611F4046002C0E537A1F4EAE0EC8B63
:10055C0001FF08C0E0E0FAEC6AE97BE30E94300698
:10056C001AE022C0E0E1F7E260E070E00E943006A1
:10057C0015E01AC0E83511F4086003C0E83709F03B
:10058C00EAC0E0E1EC8B01FF08C0E0E0F0E060E0E5
:10059C0070E10E94300618E007C0E0E0F0E160E096
:1005AC0070E00E94300614E0403011F00F7701C06B
:1005BC0041E001FF08C00E941C060E941006149620
:1005CC000E94B0080FC002FF07C00E941C060E94C8
:1005DC002B060E94530806C00E941C060E942B0684
:1005EC0066277727EA87FB876C877D8702FF12C017
:1005FC00AD85AA2342F40E941E060E9445080E9463
:10060C001706EDE2ED8BED89E03019F01F5F4F5FBF
:10061C0001C00B7F342F00FD14C0151710F43517D3
:10062C0008F00FC007FF08C002FF04C00B7F2D8924
:10063C00115001C020E301C020E20E94F505515089
:10064C00ECCF141790F4006102FF06C00E9435062F
:10065C0009F0515011504150E0E3EA930E940A0610
:10066C00503009F051504150ECCF312FEC89E03033
:10067C00B9F43030A1F003FF06C0EE85FF8525915B
:10068C00EE87FF8705C0AE85BF852D91AE87BF87EE
:10069C000E94F505503009F051503150EACF51C04D
:1006AC000E9447060E946B082E2F2A3030F003FF61
:1006BC0002C0295C01C0295A01C0205D04FD21C083
:1006CC00213360F4A889B9898A899B89A130E0E03B
:1006DC00BE07E0E08E07E0E09E0709F40BC043176D
:1006EC0040F4531710F000FF01C010C020E207FFC8
:1006FC0008C020E3006102FF04C00E94350609F027
:10070C0051500E94F505503009F0515031500E9463
:10071C0047060E949C080E941706EC89A889B98993
:10072C008A899B89FF27662777270E946B080E947E
:10073C003006E889F9896A897B890E94DC0809F00E
:10074C00AFCF00FF08C0503031F05150E0E2EA93D7
:10075C000E940A06F8CF10E00CCEAE81BF810E9439
:10076C00AC080E94E708EF966F960895FF92F82E5A
:10077C0026970E94E2080E945006309719F4EFEF7A
:10078C00FFEF23C0DE0116960E9441088D010E94E6
:10079C005006EE83FF83E0E0E887E987DE011A96D6
:1007AC000E9441080E94AC08FA93EA931A930A93A8
:1007BC00E6E9F0E0FA93EA93DE011A96BDDD9F01BB
:1007CC00AE81BF81E0E0EC93F9010E94E9082A9622
:1007DC00FF900895AA93EBB3EF70AE2FE881E07F02
:1007EC00EA2BEBBB8DE08A95F1F7DA9A8DE08A95CE
:1007FC00F1F7DA988DE08A95F1F777C0AA93A88182
:10080C00E9DFE881E295E883A881E4DF85E88A9551
:10081C00F1F76BC0AA93E881F0E0EC57FE4FE08152
:10082C00A981AE0FEBDF5980488022960895A2E093
:10083C000E945706ACE0E2DFA1E00E945706E0E020
:10084C004E2E5E2E0895AA93A881AA3011F057144B
:10085C0048F0E0E0EA934394A42DDCDFA881AA30B1
:10086C0009F443C05394D89AA881C8DFD8983DC0E6
:10087C00BA93AA931A93A981BA81ED91A983BA83E9
:10088C001E2FE03019F0A12FDEDFF5CF1881239653
:10089C000895AA93EAB3E06FEABBD29AD09AD19AA0
:1008AC00DA98D898D9987880E881E058E093860156
:1008BC00E881E054E0938701A4E1B0E00E948E0649
:1008CC000E945D060E945D060E945D06A0E282DF2A
:1008DC0088EC90E00197F1F7A8E290DFA4E08EDFBE
:1008EC00A5E88CDFA6E08ADFA2DF21960895BA93F3
:1008FC00AA93E991F991A991B991CD0105900D9225
:10090C000020E1F7FC010895BA93AA93A991B9913B
:10091C00EE27FF276D91662311F03196FBCF0895DA
:10092C00BA93AA93AA27BB27E991F99105900020C5
:10093C0011F01196FBCFFD0108950E94CA087B812E
:10094C006A81F981E88177FB770F67FD7160972FDA
:10095C009E5781F078F0983190F4AA27BB2788270E
:10096C0008948795B795A7959A95D1F7EA23FB2319
:10097C00682305C0E8947727EE27FF2766276F7753
:10098C00769508F4606877F9A991B9918991999154
:10099C00EA17FB076807790797FB08950E94CA08B6
:1009AC000E94BB080E94A3040E94C00819F40E9474
:1009BC00B60809C0E6F70E94B608A0E0B0E080E8EF
:1009CC009FE30E94370724960895A6D0E0E0EA83BF
:1009DC00EFE3EB831A930A93EB85FC85EF3FAFEFC4
:1009EC00FA0731F46CD1AAE6B0E00E947D048AC00B
:1009FC00EF3FAFE7FA0731F462D1ABE6B0E00E940B
:100A0C007D0480C0AC85AA2352F4E985FA856B85F8
:100A1C007C850E94980658D15CD1EDE2EC93A885B8
:100A2C00A73010F0E6E0E8871885E12F1150E03090
:100A3C0021F056D1B6D059D1F8CF5CD10E943E07E7
:100A4C0043D110E0E0E0F0E060E87FE34ED152D11A
:100A5C000E94210868F044D191D047D11F5F173212
:100A6C0030F02DD1AFE6B0E00E947D044BC0EFCF4B
:100A7C00103021F42ED1E0E3EC9320C0E12F115083
:100A8C00E030E1F02DD18DD085D0DF01CB010E947B
:100A9C00D4042BD12FD10E94DC070E94CB060E2F41
:100AAC0018D18DD0F0E01CD10E9453080E9404078D
:100ABC000E948E0728D188D007D1E0CFE885E0309E
:100ACC00E9F007D1EEE2EC93E885E150E887EF5FBF
:100ADC00A9F019D153D0F8D0E985FA856B857C85BE
:100AEC000E94CB060E2FF5D06AD0F0E00CD10E94FC
:100AFC0053080E94040768D0E7D0E6CFAE81BF81CF
:100B0C00E0E0EC93198108812D960895ED91FD910B
:100B1C003196FE93EE930895BA93AA932497E0E04E
:100B2C00E883E9830895AC81BD818E819F81E0E0EB
:100B3C00F0E060E271E40E948E07EC83FD836E832B
:100B4C007F830895EC81FD816E817F81AC85BD85AD
:100B5C008E859F850E9421080895AC85BD858E8564
:100B6C009F850895EDECFCEC6CEC7DE30E948E0708
:100B7C00EC87FD876E877F873F5F0895E0E0F0E0AC
:100B8C0060E271E40E948E070895EC87FD876E8702
:100B9C007F870895A0E0B0E080E09FE30E943E07CD
:100BAC000895EDECFCEC6CEC7DE30E948E0708954F
:100BBC00A885B9851196A887B98711970895E02F54
:100BCC00E05DEC93E02F08950E94CF080E94370758
:100BDC000895E885F9853196E887F98708952A9371
:100BEC00AF81B885E985FA8509950895FE01E65A25
:100BFC00FF4F0190F081E02D08953497DE01A65A45
:100C0C00BF4FED93FC930895AF81B885E985FA85C4
:100C1C0009950895DE01A65ABF4F0D90BC91A02DE9
:100C2C000895EA87FB876C877D870895DFDFE5CF22
:100C3C00EA85FB856C857D850895EE87FF87AE85FB
:100C4C00BF850E948A041E2F0895E4DF14960E942B
:100C5C00AC080895E88BF98B6A8B7B8B08950B7F1E
:100C6C00ED89EA93DE01A95ABF4F0D90BC91A02DDE
:100C7C00FE01E75AFF4F0190F081E02D09955030AD
:100C8C000895E889F9896A897B89AA85BB858C8551
:100C9C009D850895DE011C960E9441080E94AC08B7
:100CAC0008950E940404A3E0B0E00C948E06A0E327
:100CBC000E94F00388EC90E00197F1F70895EE8123
:100CCC00FF81FA93EA930895E987FA876B877C870B
:100CDC000895AE81BF811196AE83BF83119708959D
:100CEC00AA81BB818C819D810895EA83FB836C83EF
:100CFC007D830895EA81FB816C817D81A985BA850C
:100D0C008B859C850895A985BA858B859C850895CE
:100D1C00109639F0A89580ED97E00197F1F71197AF
:100D2C00C9F7089530976040704009F070580895E5
:100D3C00552342F4503811F4E0FF04C03196691F7A
:100D4C00791F6BF050E8572711F45F93CFC05F3FCA
:100D5C0031F0660F000C57956795752F08955F93CA
:100D6C0000200AF0CFC0C8C050E8192E1522880FF9
:100D7C00991F9527550F879550E8072E0522660F6A
:100D8C00771F7527550F67950895689401C0E894EF
:100D9C005F93F2DF703818F07F3F08F4A7C056E17C
:100DAC00571BAAF4519558300EF4593030F0EFEF30
:100DBC00FFEF6FEF7FE777F91AC077275523B9F06C
:100DCC00EE0FFF1F661F771F5A95D1F710C07727BC
:100DDC00583028F0EF2FF62F672F5850F9CF5523A6
:100DEC0031F076956795F795E7955A95D1F70020F0
:100DFC000AF445D15F910895689401C0E894309746
:100E0C0060407040B1F0002426F0772312F4009477
:100E1C0036D1172E7EE1112032F07A95EE0FFF1F9E
:100E2C00661F111CF9CFEF2FF62F612D5F938ADF10
:100E3C005F9108954F93AF01FD01DA01AB01BC0145
:100E4C00CA01402D012C142E4F910895EA0FFB1F5F
:100E5C00681F0895E095F0956095EF5FFF4F6F4F19
:100E6C0008955F9381DF903871F150E8152604C026
:100E7C005F937ADF903839F1703821F1572F591B75
:100E8C002BF112F4D7DFFACF583118F0AA27BB2771
:100E9C008827583028F0AB2FB82F88275850F9CF17
:100EAC00552329F08695B795A7955A95D9F7502DC6
:100EBC00512572F0CBDF38F46795F795E79573956C
:100ECC0013F420C0B7DF3EDF5F910895D8F7FBCF56
:100EDC00EA1BFB0B680B51F010F40094BBDF66238C
:100EEC0092F3EE0FFF1F661F7A95CBF7EE27FF27C5
:100EFC00662777275F910895EFEFFFEF6FE77FEF9E
:100F0C005F910895EFEFFFEF6FE77FE75F91089533
:100F1C005F932ADF703851F3903841F30124089421
:100F2C00791F23F41CF300203AF3ECCF0F921F939C
:100F3C002F933F934F93112722279927689FA00146
:100F4C008F9F302D410D591F6B9F300D411D591F27
:100F5C008E9F27D0BF9F25D06A9F23D0BE9F1DD0C8
:100F6C00AF9F1BD0AE9F110D291F391F491F591F51
:100F7C00E32FF42F652F522F4F913F912F911F91FB
:100F8C000F9066232AF0550FEE1FFF1F661F02C03D
:100F9C0073954BF2CDDE5F910895100D211D391F15
:100FAC0002C0200D311D491F591F08955F93DCDECF
:100FBC00703821F411200AF49FCFA4CF903809F493
:100FCC0095CF01240894970B1BF4D4F30020F3CF96
:100FDC00792F1F932F933F934F931124112722277F
:100FEC0033274427552790E2AE17BF0786074107E2
:100FFC0030F0AE1BBF0B860B410B089401C08894DC
:10100C00551F221F331F111CAA1FBB1F881F441FF3
:10101C009A9551F7F901612D4F913F912F911F91A5
:10102C00662332F0550FEE1FFF1F661F7A9543F2B1
:10103C007FDE5F91089599239AF0772342F09717FA
:10104C0048F029F4AE17BF07860720F031F09894CA
:10105C008894089598940894089518948894089501
:10106C007723C2F7971798F3A9F7EA17FB076807D6
:10107C0088F399F3ECCF0024AF0DB01D0895F095D3
:10108C0060957095E195FF4F6F4F7F4F0895FE2F40
:10109C00FF0FFF0B6F2F7F2F08956F2F660F660BBF
:1010AC00762F0895002498E0AA0F001C0E1A10F455
:1010BC000E0E01C0A1609A95B9F7EA2FA02D0895E4
:1010CC0039D0F0DF0EF4E19508953F934F935F9381
:1010DC00002411244427552730E2AA0FBB1F881F78
:1010EC00991F001C111C441F551F0E1A1F0A460B7A
:1010FC00570B28F40E0E1F1E461F571F01C0A16070
:10110C003A9559F7FD01BC01D001CA015F914F918D
:10111C003F910895E894A7FF02C0A1956894E7FD5C
:10112C00E195C0DFEA2F0EF4E1950895CEDFFD01C5
:10113C00BC010895E894E7FF02C0E1956894A7FF0D
:10114C0004C0A19500F8039400FA0895ED91FC9168
:10115C0011970895ED91FD916D917C9113970895E0
:10116C00E881F9816A817B810895A881B9818A819E
:10117C009B810895E883F9836A837B8308957A932E
:10118C006A93FA93EA9308959A938A93BA93AA93DB
:10119C000895182E862F612D192E972F712D1B2E29
:1011AC00BF2FF12D1A2EAE2FE12D089530976040F0
:1011BC00704008955A934A933A932A931A930A9338
:1011CC0008955D814C813B812A81198108810895A4
:00000001FF
