:060000000C943C000C947E
:1000060000000C9400000C9400000C9400000C946A
:1000160000000C9400000C9400000C9400000C945A
:1000260000000C9400000C9400000C9400000C944A
:1000360000000C9400000C9400000C9400000C943A
:1000460000000C9400000C9400000C940000102793
:10005600E80364000A00010000100001100001001E
:100066004144433D2564000080C0020080016E00CB
:100076000000F894EE27ECBBF1E0FBBFEBBFE5BF59
:100086008DE0A2E0BB27ED938A95E9F780E094E046
:10009600A0E6ED930197E9F7E0E7F0E08591959109
:1000A600009761F0A591B59105901590BF01F001FB
:1000B60005900D920197E1F7FB01F0CFEFE5EDBF5B
:1000C600E4E0EEBFC0E6D1E00C946900E6B1E76873
:1000D600E6B9A0E10E949D02369AA4EFB1E00E9423
:1000E6001E03E4B1F0E0DF01E5B1FE2FE0E0EA0F28
:1000F600FB1F2F010E946B02E0E6F1E0FA93EA9300
:10010600E6E6F0E0FA93EA93F201662777270E9483
:10011600380384E00E940A022896A0E6B1E00E9415
:100126008C02DACFFFCFBA93AA931A930A93AA81C5
:10013600BB8112960E943003309759F1AA81BB8188
:1001460014960E9430038F01309761F00230E0E090
:100156001E0798F0F80131978F01AA81BB8114968A
:10016600ED93FC93AA81BB811296ED91FD91319698
:10017600FE93EE933197AC81A083AA81BB810E9446
:100186003003FF232AF0ED91FD913196FE93EE9315
:1001960006C0AA81BB81EFEFFFEFED93FC931981B7
:1001A600088125960895BA93AA9326970E943D033F
:1001B60010E0AC85BD85E0E0F0E0ED93FC93EA89C4
:1001C600FB893196EA8BFB8B3197E4912E2FE03039
:1001D60009F415C1E12FE03039F4253211F411E0AC
:1001E60002C00E94E4020AC1E130A9F4253219F4E2
:1001F6000E94E40202C112E040E000E02D3211F458
:1002060001E0FCC02B3211F44BE2F8C0203211F4AD
:1002160040E2F4C002C0E23039F450E013E020338B
:1002260011F40068EBC003C0E33009F0E7C02033E7
:1002360010F02A3308F007C0AAE05A9F502DE22F8B
:10024600E0535E0FDBC0E22FE33649F40E94EB0277
:10025600E889F989A481AA930E94F102CEC0E33706
:1002660041F40E94EB020E94F7020E94CB021E2F6D
:100276000AC0E03761F40E94EB020E94F7020E9476
:10028600D7021E2F086002600F7730E034C0E436D4
:1002960011F0E93611F4046002C0E53731F4E4E503
:1002A600F0E0EE83FF8315E00CC0E83511F408603A
:1002B60003C0E83709F0A1C0EEE5F0E0EE83FF8366
:1002C60014E002FF14C00E94EB020E940103AB85FA
:1002D600AA233AF4EA85FB850E942C03EA87FB876A
:1002E6004DE2403011F01F5F01C00B7F04C00E9439
:1002F600EB020E94010300FD11C0151778F407FFF9
:1003060008C002FF04C00B7F242F115001C020E358
:1003160001C020E20E94E4025150EFCF312F01FFCD
:1003260017C03030A1F003FF06C0EE81FF81259192
:10033600EE83FF8305C0AE81BF812D91AE83BF835F
:100346000E94E402503009F051503150EACF4BC0C0
:1003560020E3EE81FF810E943403E887F987EE816E
:10036600FF813296EE83FF83E885F985AA85BB85F2
:10037600AE17BF0750F02F5FA885B985EA85FB85C4
:10038600EA1BFB0BEA87FB87EFCF2A3328F003FF34
:1003960002C0295F01C0295D04FD1AC0213320F483
:1003A600A885B985119709F409C0531710F000FF05
:1003B60001C013C020E207FF0BC020E3006102FF6B
:1003C60007C00B7F4A930E94F102503009F051504A
:1003D6000E94E402503009F051503150A885B98589
:1003E600129708F0B5CF00FF08C0503031F05150D9
:1003F600E0E2EA930E94F102F8CF10E0E0CEAC858D
:10040600BD850E9430030E94440364960895FF92BE
:10041600F82E26970E943F030E940903309719F48D
:10042600EFEFFFEF23C0DE0116960E9428038D0131
:100436000E940903EE83FF83E0E0E887E987DE0197
:100446001A960E9428030E943003FA93EA931A939D
:100456000A93E6E9F0E0FA93EA93DE011A96A3DE40
:100466009F01AE81BF81E0E0EC93F9010E94460353
:100476002A96FF900895AA93E8B3EF70AE2FE8810D
:10048600E07FEA2BE8BB8DE08A95F1F7C29A8DE012
:100496008A95F1F7C2988DE08A95F1F777C0AA930D
:1004A600A881E9DFE881E295E883A881E4DF85E8B1
:1004B6008A95F1F76BC0AA93E881F0E0E058FE4F09
:1004C600E081A981AE0FEBDF7980688022960895DE
:1004D600A2E00E941003ACE0E2DFA1E00E9410035C
:1004E600E0E06E2E7E2E0895AA93A881AA3011F020
:1004F600791448F0E0E0EA936394A62DDCDFA88146
:10050600AA3009F443C07394C09AA881C8DFC09882
:100516003DC0BA93AA931A93A981BA81ED91A98392
:10052600BA831E2FE03019F0A12FDEDFF5CF188138
:1005360023960895AA93E7B3E06FE7BBBA9AB89AF1
:10054600B99AC298C098C1989880E881E058E0931B
:100556008201E881E054E0938301A4E1B0E00E94C7
:100566001E030E9416030E9416030E941603A0E2B1
:1005760082DF88EC90E00197F1F7A8E290DFA4E033
:100586008EDFA5E88CDFA6E08ADFA2DF219608953C
:10059600BA93AA93A991B991EE27FF276D91662385
:1005A60011F03196FBCF0895BA93AA93AA27BB27D9
:1005B600E991F9910590002011F01196FBCFFD010C
:1005C60008952A93AD85BE85EF85F8890995089526
:1005D600E889F9893497E88BF98B0895AD85BE854E
:1005E600EF85F88909950895A889B98914960E9416
:1005F6003003EE83FF83AE81BF810895A889B98950
:1006060014960E943003EA87FB870895DE011C9644
:100616000E9428030E94300308950E945202A3E01C
:10062600B0E00C941E03A0E30E943E0288EC90E02A
:100636000197F1F70895109639F0A89580ED97E0A7
:100646000197F1F71197C9F708950024AF0DB01D72
:100656000895F195E195F0400895ED91FC9111977B
:1006660008950590F491E02D08957A936A93FA938C
:10067600EA9308955A934A933A932A931A930A93BC
:1006860008955D814C813B812A81198108810895F5
:00000001FF
