:0A0000000C9433000C9400000C94E3
:10000A0000000C9400000C9400000C9400000C9466
:10001A0000000C9400000C9400000C9400000C9456
:10002A0000000C9400000C9400000C9400000C9446
:10003A0000000C9400000C9400000C9400000C9436
:10004A0000000C9400000C9400001027E8036400E0
:10005A000A0001000010000110000100F894EE27C8
:10006A00ECBBF1E0FBBFEBBFE5BF8DE0A2E0BB2735
:10007A00ED938A95E9F780E094E0A0E6ED93019785
:10008A00E9F7EFE5EDBFE4E0EEBFC0E6D1E00C949E
:10009A004E00E3B7ED67E3BFE3E3ECBFFFCFFFCF6B
:00000001FF
