:0E0000000C9437000C9400000C9400000C943B
:10000E0000000C9400000C9400000C9400000C9462
:10001E0000000C9400000C9400000C9400000C9452
:10002E0000000C9400000C9400000C9400000C9442
:10003E0000000C9400000C9400000C9400000C9432
:10004E0000000C94000009003F065B4F666D7D07B3
:10005E007F6F0200040054000A0060015600000089
:10006E00F894EE27ECBBF1E0FBBFEBBFE5BF8DE0F4
:10007E00A2E0BB27ED938A95E9F780E094E0A0E635
:10008E00ED930197E9F7E0E6F0E085919591009701
:10009E0061F0A591B59105901590BF01F001059005
:1000AE000D920197E1F7FB01F0CFEFE5EDBFE4E034
:1000BE00EEBFC0E6D1E00C946400EFEFE7BBE1E5E4
:1000CE00EDB953944A94E0E04E1614F4E9E04E2E46
:1000DE00EAE0E51508F45524E52D1BD0E42D19D0E2
:1000EE00A4EFB1E00E949500ECCFFFCFAA93E88178
:1000FE00EFB9779BFECF02D021960895C09A88EC77
:10010E0090E00197F1F7C09888EC90E00197F1F735
:10011E000895F0E0E05AFE4FA081E8CF109639F036
:10012E00A89580ED97E00197F1F71197C9F708951B
:00000001FF
