:0A0000000C942A000C9400000C94EC
:10000A0000000C9400000C9400000C9400000C9466
:10001A0000000C9400000C9400000C9400000C9456
:10002A0000000C9400000C9400000C9400000C9446
:10003A0000000C9400000C9400000C9400000C9436
:10004A0000000C9400000C940000F894EE27ECBB1E
:10005A00F1E0FBBFEBBFE5BF8DE0A2E0BB27ED936C
:10006A008A95E9F780E094E0A0E6ED930197E9F735
:10007A00EFE5EDBFE4E0EEBFC0E6D1E00C94450049
:10008A00EDE0EABBE1E0EBBBE9B3E370E33021F476
:10009A00E9B3E460E77F03C0E9B3E860EB7FEBBB59
:1000AA00A4E6B0E00E945B00EFCFFFCF109639F0D4
:1000BA00A8958AEF90E00197F1F71197C9F708958B
:00000001FF
