:040000000C942A0032
:100004000C9400000C9400000C9400000C9400006C
:100014000C9400000C9400000C9400000C9400005C
:100024000C9400000C9400000C9400000C9400004C
:100034000C9400000C9400000C9400000C9400003C
:100044000C9400000C9400000C9400000C9400002C
:10005400F894EE27ECBBF1E0FBBFEBBFE5BF8DE00E
:10006400A2E0BB27ED938A95E9F780E094E0A0E64F
:10007400ED930197E9F7EFE5EDBFE4E0EEBFC0E6ED
:10008400D1E00C944500EAB3ED6FEABBD99AEBB327
:10009400E270EBBB13D012D0E9B3F0E0F595E7952D
:1000A400E17011F4DA9A08C0E9B3F0E0F595E79548
:1000B400E170E13009F4DA98EDCFFFCFEBB3A1E0C2
:1000C400EA27EBBBA8EEB3E00C946800109639F075
:1000D400A89580ED97E00197F1F71197C9F7089576
:00000001FF
