:100000000C9437000C9400000C9400000C94000039
:100010000C9400000C9400000C9400000C94000060
:100020000C9400000C9400000C9400000C94000050
:100030000C9400000C9400000C9400000C94000040
:100040000C9400000C9400000C9400000C94000030
:100050000C9400003F065B4F666D7D077F6FD301F8
:100060000A006001540002006A015E000000F8947A
:10007000EE27ECBBF1E0FBBFEBBFE5BF8DE0A2E0FC
:10008000BB27ED938A95E9F780E094E0A0E6ED9335
:100090000197E9F7E0E6F0E085919591009761F02E
:1000A000A591B59105901590BF01F00105900D92B5
:1000B0000197E1F7FB01F0CFEFE5EDBFE4E0EEBF24
:1000C000C0E6D1E00C946400EFEFE1BBEFE3E7BBE7
:1000D000E0916301E2BBA0916A01B0916B01809154
:1000E0006C0190916D010CD0AAE6B1E00E94FB007A
:1000F000EF5FFF4F6F4F7F4F0E940001ECCFFFCFAC
:100100000E940F012897E0E2E883E0E0E983EA83B8
:10011000EB83EC83ED83EE83EF83E885F9856A85D5
:100120007B85EC83FD836E837F83EC81FD816E8113
:100130007F810E941401E1F0E881E095E8BB1AD0CC
:100140000E94F700E05AFE4FE081E2BB13D00E940C
:10015000D200EC83FD836E837F83A5E0B0E00E9434
:10016000C3000E9405010E94CD000E940A01DDCF5C
:100170002C960895AC81BD818E819F81EAE0F0E0EC
:1001800060E070E00895109639F0A89580ED97E052
:100190000197F1F71197C9F7089576956795F79547
:1001A000E79508953F934F935F93002411244427CC
:1001B000552730E2AA0FBB1F881F991F001C111C76
:1001C000441F551F0E1A1F0A460B570B28F40E0E1C
:1001D0001F1E461F571F01C0A1603A9559F7FD0128
:1001E000BC01D001CA015F914F913F910895DADFC0
:1001F000FD01BC010895ED91FD916D917D910895F2
:100200007E936E93FE93EE930895E881F9816A815F
:100210007B810895E883F9836A837B8308959A93A9
:100220008A93BA93AA9308953097604070400895D6
:00000001FF
