:0E0000000C9445000C9400000C9400000C942D
:10000E0000000C9400000C9400000C9400000C9462
:10001E0000000C9400000C9400000C9400000C9452
:10002E0000000C9400000C9400000C9400000C9442
:10003E0000000C9400000C9400000C9400000C9432
:10004E0000000C9400001027E80364000A00010071
:10005E0000100001100001003738392F3435362AD0
:10006E003132332D4F303D2B2563000080C0100000
:10007E0080016600020090017A000000F894EE27DD
:10008E00ECBBF1E0FBBFEBBFE5BF8DE0A2E0BB2711
:10009E00ED938A95E9F780E094E0A0E6ED93019761
:1000AE00E9F7ECE7F0E085919591009761F0A59165
:1000BE00B59105901590BF01F00105900D92019735
:1000CE00E1F7FB01F0CFEFE5EDBFE4E0EEBFC0E6F8
:1000DE00D1E00C947200EFE0E1BBE0EFE2BBA0E1F7
:1000EE000E94E00202D0FECFFFCF0E94AB0310E0D1
:1000FE000FEF30E010E014300CF050C0E12FA1E013
:10010E000E948B03E095E2BBE0B3F0E00E94930304
:10011E00E17009F400E00E94270309F401E00E9457
:10012E002F0309F402E00E94370309F403E00F3FA6
:10013E0079F1E12FEE0FEE0FE00F3E2FE0E6F1E04A
:10014E00FA93EA93E6E7F0E0FA93EA93E32FF0E00E
:10015E00E058FE4FE081FF27662777270E94A40311
:10016E0084E00E944D022896A0E6B1E00E94CF02E4
:10017E000FEFE0B3F0E00E949303E170D1F30E9421
:10018E002703E9F30E942F03E9F30E943703E9F3F3
:10019E00A8ECB0E00E9479031F5FADCF0E94B203BE
:1001AE0024960895BA93AA931A930A93AA81BB81AF
:1001BE0012960E949C03309759F1AA81BB81149626
:1001CE000E949C038F01309761F00230E0E01E0721
:1001DE0098F0F80131978F01AA81BB811496ED93A7
:1001EE00FC93AA81BB811296ED91FD913196FE93FF
:1001FE00EE933197AC81A083AA81BB810E949C03B0
:10020E00FF232AF0ED91FD913196FE93EE9306C0F9
:10021E00AA81BB81EFEFFFEFED93FC93198108816B
:10022E0025960895BA93AA9326970E94A90310E0E3
:10023E00AC85BD85E0E0F0E0ED93FC93EA89FB89A7
:10024E003196EA8BFB8B3197E4912E2FE03009F437
:10025E0015C1E12FE03039F4253211F411E002C05E
:10026E000E943F030AC1E130A9F4253219F40E941D
:10027E003F0302C112E040E000E02D3211F401E034
:10028E00FCC02B3211F44BE2F8C0203211F440E2E4
:10029E00F4C002C0E23039F450E013E0203311F420
:1002AE000068EBC003C0E33009F0E7C0203310F064
:1002BE002A3308F007C0AAE05A9F502DE22FE053D0
:1002CE005E0FDBC0E22FE33649F40E944603E88955
:1002DE00F989A481AA930E944C03CEC0E33741F45E
:1002EE000E9446030E9452030E940E031E2F0AC054
:1002FE00E03761F40E9446030E9452030E941A03E3
:10030E001E2F086002600F7730E034C0E43611F023
:10031E00E93611F4046002C0E53731F4E4E5F0E0AB
:10032E00EE83FF8315E00CC0E83511F4086003C0BE
:10033E00E83709F0A1C0EEE5F0E0EE83FF8314E0AC
:10034E0002FF14C00E9446030E945C03AB85AA23E1
:10035E003AF4EA85FB850E948703EA87FB874DE224
:10036E00403011F01F5F01C00B7F04C00E94460396
:10037E000E945C0300FD11C0151778F407FF08C03A
:10038E0002FF04C00B7F242F115001C020E301C0D7
:10039E0020E20E943F035150EFCF312F01FF17C0D3
:1003AE003030A1F003FF06C0EE81FF812591EE8370
:1003BE00FF8305C0AE81BF812D91AE83BF830E94A6
:1003CE003F03503009F051503150EACF4BC020E37B
:1003DE00EE81FF810E94A003E887F987EE81FF81FD
:1003EE003296EE83FF83E885F985AA85BB85AE1725
:1003FE00BF0750F02F5FA885B985EA85FB85EA1BFC
:10040E00FB0BEA87FB87EFCF2A3328F003FF02C0EE
:10041E00295F01C0295D04FD1AC0213320F4A8858F
:10042E00B985119709F409C0531710F000FF01C0E8
:10043E0013C020E207FF0BC020E3006102FF07C0DC
:10044E000B7F4A930E944C03503009F051500E948A
:10045E003F03503009F051503150A885B98512979D
:10046E0008F0B5CF00FF08C0503031F05150E0E237
:10047E00EA930E944C03F8CF10E0E0CEAC85BD8528
:10048E000E949C030E94B00364960895FF92F82E7A
:10049E0026970E94AB030E946403309719F4EFEF86
:1004AE00FFEF23C0DE0116960E9483038D010E948A
:1004BE006403EE83FF83E0E0E887E987DE011A96A6
:1004CE000E9483030E949C03FA93EA931A930A9361
:1004DE00E9EDF0E0FA93EA93DE011A96A3DE9F01AE
:1004EE00AE81BF81E0E0EC93F9010E94B2032A963F
:1004FE00FF900895AA93EBB3EF70AE2FE881E07FE3
:10050E00EA2BEBBB8DE08A95F1F7DA9A8DE08A95AE
:10051E00F1F7DA988DE08A95F1F777C0AA93A88162
:10052E00E9DFE881E295E883A881E4DF85E88A9532
:10053E00F1F76BC0AA93E881F0E0E057FE4FE0813F
:10054E00A981AE0FEBDF5980488022960895A2E074
:10055E000E946B03ACE0E2DFA1E00E946B03E0E0DF
:10056E004E2E5E2E0895AA93A881AA3011F057142C
:10057E0048F0E0E0EA934394A42DDCDFA881AA3092
:10058E0009F443C05394D89AA881C8DFD8983DC0C7
:10059E00BA93AA931A93A981BA81ED91A983BA83CA
:1005AE001E2FE03019F0A12FDEDFF5CF1881239634
:1005BE000895AA93EAB3E06FEABBD29AD09AD19A81
:1005CE00DA98D898D9987880E881E058E09392012B
:1005DE00E881E054E0939301A4E1B0E00E94790336
:1005EE000E9471030E9471030E947103A0E282DFD8
:1005FE0088EC90E00197F1F7A8E290DFA4E08EDF9F
:10060E00A5E88CDFA6E08ADFA2DF21960895BA93D3
:10061E00AA93A991B991EE27FF276D91662311F048
:10062E003196FBCF0895BA93AA93AA27BB27E991D7
:10063E00F9910590002011F01196FBCFFD01089560
:10064E00E0B3F0E0F595E7950E949303E17008950D
:10065E00E0B3F0E00E9497030E949303E1700895C7
:10066E00E0B3F0E00E9495030E949303E1700895B9
:10067E002A93AD85BE85EF85F88909950895E88999
:10068E00F9893497E88BF98B0895AD85BE85EF8592
:10069E00F88909950895A889B98914960E949C0332
:1006AE00EE83FF83AE81BF810895A889B989149620
:1006BE000E949C03EA87FB870895DE011C960E9428
:1006CE0083030E949C0308950E949502A3E0B0E06C
:1006DE000C947903A0E30E94810288EC90E00197CC
:1006EE00F1F70895109639F0A89580ED97E00197EF
:1006FE00F1F71197C9F708950024AF0DB01D0895B5
:10070E00F195E195F0400895EE230E2EEA2F19F0A3
:10071E00EE0F0A94E9F70895F595E795F595E795A7
:10072E00F595E795F595E7950895ED91FC9111975F
:10073E0008950590F491E02D08957A936A93FA93B3
:10074E00EA9308955A934A933A932A931A930A93E3
:10075E0008955D814C813B812A811981088108951C
:00000001FF
