:0A0000000C9437000C9400000C94DF
:10000A0000000C9400000C9400000C9400000C9466
:10001A0000000C9400000C9400000C9400000C9456
:10002A0000000C9400000C9400000C9400000C9446
:10003A0000000C9400000C9400000C9400000C9436
:10004A0000000C9400000C9400003F065B4F666DA4
:10005A007D077F6F63050A006001540002006A0190
:10006A005E000000F894EE27ECBBF1E0FBBFEBBFAB
:10007A00E5BF8DE0A2E0BB27ED938A95E9F780E022
:10008A0094E0A0E6ED930197E9F7E0E6F0E08591C8
:10009A009591009761F0A591B59105901590BF01D2
:1000AA00F00105900D920197E1F7FB01F0CFEFE522
:1000BA00EDBFE4E0EEBFC0E6D1E00C946400EFEFE0
:1000CA00EABBE7BBA0916A01B0916B0180916C0118
:1000DA0090916D0102D0F6CFFFCF0E94E4002497E1
:1000EA00E0E0E883E983EA83EB831A930A9308E062
:1000FA0010E0EE81FF8168857985EA83FB836C8352
:10010A007D83EA81FB816C817D810E94E900B9F0DF
:10011A0008BB19D00E94E000E05AFE4FE081E0954A
:10012A00EBBB11D00E94BB00EA83FB836C837D8307
:10013A0016950795A5E0B0E00E94B100E2CF1981BB
:10014A0008812A960895AA81BB818C819D81EAE063
:10015A00F0E060E070E00895109639F0A89580ED1F
:10016A0097E00197F1F71197C9F708953F934F93D5
:10017A005F93002411244427552730E2AA0FBB1F9E
:10018A00881F991F001C111C441F551F0E1A1F0A95
:10019A00460B570B28F40E0E1F1E461F571F01C091
:1001AA00A1603A9559F7FD01BC01D001CA015F91DE
:1001BA004F913F910895DADFFD01BC0108959A93AA
:1001CA008A93BA93AA93089530976040704008952D
:00000001FF
