:040000000C94430019
:100004000C9400000C9400000C9400000C9400006C
:100014000C9400000C9400000C9400000C9400005C
:100024000C9400000C9400000C9400000C9400004C
:100034000C9400000C9400000C9400000C9400003C
:100044000C9400000C9470000C9400000C940000BC
:100054001027E80364000A000100001000011000EA
:1000640001000000636F756E7465723D2530336462
:10007400000080C0010005006600020080017600D7
:100084000000F894EE27ECBBF1E0FBBFEBBFE5BF4B
:100094008DE0A2E0BB27ED938A95E9F780E094E038
:1000A400A0E6ED930197E9F7E8E7F0E085919591F3
:1000B400009761F0A591B59105901590BF01F001ED
:1000C40005900D920197E1F7FB01F0CFEFE5EDBF4D
:1000D400E4E0EEBFC0E6D1E00C947B00EA93EFB716
:1000E400EA93EAB7EF7DEABF5394E991EFBFE99150
:1000F4001895EFEFE1BBE0E0E7BBEFEFE8BBEBB750
:10010400E062EBBFA0E186D07894E0E6F1E0FA93F8
:10011400EA93E8E6F0E0FA93EA93E52DFF276627F1
:1001240077270E944F0384E00E94AE022896A0E63F
:10013400B1E05FD0E0B3E160E2BBA8ECB0E00E94C4
:100144003503E0B3EE7FE2BBA8ECB0E00E943503D8
:100154002FD0DBCFFFCFAA93EBB3EF70AE2FE881A4
:10016400E07FEA2BEBBB8DE08A95F1F7DA9A8DE01C
:100174008A95F1F7DA988DE08A95F1F777C0AA931A
:10018400A881E9DFE881E295E883A881E4DF85E8D6
:100194008A95F1F76BC0AA93E881F0E0E058FE4F2E
:1001A400E081A981AE0FEBDF498078802296089523
:1001B400A2E00E94FB02ACE0E2DFA1E00E94FB02AD
:1001C400E0E07E2E4E2E0895AA93A881AA3011F065
:1001D400461448F0E0E0EA937394A72DDCDFA8818D
:1001E400AA3009F443C04394D89AA881C8DFD898A8
:1001F4003DC0BA93AA931A93A981BA81ED91A983B8
:10020400BA831E2FE03019F0A12FDEDFF5CF18815D
:1002140023960895AA93EAB3E06FEABBD29AD09AE0
:10022400D19ADA98D898D9986880E881E058E09310
:100234008201E881E054E0938301A4E1B0E00E94EC
:1002440035030E9401030E9401030E940103A0E2FE
:1002540082DF88EC90E00197F1F7A8E290DFA4E058
:100264008EDFA5E88CDFA6E08ADFA2DF2196089561
:10027400BA93AA931A930A93AA81BB8112960E94F5
:100284004703309759F1AA81BB8114960E94470312
:100294008F01309761F00230E0E01E0798F0F8011A
:1002A40031978F01AA81BB811496ED93FC93AA81A7
:1002B400BB811296ED91FD913196FE93EE933197A9
:1002C400AC81A083AA81BB810E944703FF232AF04B
:1002D400ED91FD913196FE93EE9306C0AA81BB8108
:1002E400EFEFFFEFED93FC931981088125960895B4
:1002F400BA93AA9326970E94540310E0AC85BD8557
:10030400E0E0F0E0ED93FC93EA89FB893196EA8B17
:10031400FB8B3197E4912E2FE03009F415C1E12FC6
:10032400E03039F4253211F411E002C00E940903CF
:100334000AC1E130A9F4253219F40E94090302C16B
:1003440012E040E000E02D3211F401E0FCC02B3259
:1003540011F44BE2F8C0203211F440E2F4C002C0C0
:10036400E23039F450E013E0203311F40068EBC0BC
:1003740003C0E33009F0E7C0203310F02A3308F05B
:1003840007C0AAE05A9F502DE22FE0535E0FDBC056
:10039400E22FE33649F40E941003E889F989A48125
:1003A400AA930E941603CEC0E33741F40E941003BF
:1003B4000E941C030E94E2021E2F0AC0E03761F46F
:1003C4000E9410030E941C030E94EE021E2F08606C
:1003D40002600F7730E034C0E43611F0E93611F4EE
:1003E400046002C0E53731F4E4E5F0E0EE83FF8316
:1003F40015E00CC0E83511F4086003C0E83709F0D3
:10040400A1C0EEE5F0E0EE83FF8314E002FF14C028
:100414000E9410030E942603AB85AA233AF4EA85BE
:10042400FB850E944303EA87FB874DE2403011F0CD
:100434001F5F01C00B7F04C00E9410030E942603AB
:1004440000FD11C0151778F407FF08C002FF04C0AF
:100454000B7F242F115001C020E301C020E20E9431
:1004640009035150EFCF312F01FF17C03030A1F0F5
:1004740003FF06C0EE81FF812591EE83FF8305C053
:10048400AE81BF812D91AE83BF830E94090350309A
:1004940009F051503150EACF4BC020E3EE81FF8187
:1004A4000E944B03E887F987EE81FF813296EE8341
:1004B400FF83E885F985AA85BB85AE17BF0750F091
:1004C4002F5FA885B985EA85FB85EA1BFB0BEA87C4
:1004D400FB87EFCF2A3328F003FF02C0295F01C056
:1004E400295D04FD1AC0213320F4A885B98511972C
:1004F40009F409C0531710F000FF01C013C020E233
:1005040007FF0BC020E3006102FF07C00B7F4A9383
:100514000E941603503009F051500E9409035030D4
:1005240009F051503150A885B985129708F0B5CF1C
:1005340000FF08C0503031F05150E0E2EA930E94CD
:100544001603F8CF10E0E0CEAC85BD850E944703CA
:100554000E945B0364960895FF92F82E26970E94EA
:1005640056030E942E03309719F4EFEFFFEF23C0D8
:10057400DE0116960E943F038D010E942E03EE8336
:10058400FF83E0E0E887E987DE011A960E943F03D3
:100594000E944703FA93EA931A930A93EAE3F1E079
:1005A400FA93EA93DE011A96A3DE9F01AE81BF811E
:1005B400E0E0EC93F9010E945D032A96FF90089510
:1005C400BA93AA93A991B991EE27FF276D91662357
:1005D40011F03196FBCF0895BA93AA93AA27BB27AB
:1005E400E991F9910590002011F01196FBCFFD01DE
:1005F40008950E94C100A3E0B0E00C943503A0E389
:100604000E94AD0088EC90E00197F1F708952A93D9
:10061400AD85BE85EF85F88909950895E889F9893E
:100624003497E88BF98B0895AD85BE85EF85F889FD
:1006340009950895A889B98914960E944703EE8301
:10064400FF83AE81BF810895A889B98914960E9459
:100654004703EA87FB870895DE011C960E943F0347
:100664000E9447030895109639F0A89580ED97E00D
:100674000197F1F71197C9F708950024AF0DB01D44
:100684000895F195E195F0400895ED91FC9111974D
:1006940008950590F491E02D08957A936A93FA935E
:1006A400EA9308955A934A933A932A931A930A938E
:1006B40008955D814C813B812A81198108810895C7
:00000001FF
